:020000040000FA
:100000000C94B3000C94E4000C94E4000C94E40011
:100010000C94E4000C94E4000C94E4000C94E400D0
:100020000C94E4000C94E4000C94E4000C94E400C0
:100030000C94E4000C94E4000C94E4000C94E400B0
:100040000C94E4000C94E4000C94E4000C94E400A0
:100050000C94E4000C94E4000C94E4000C94BC09AF
:100060000C94E4000C9486090C945C090C94E40054
:100070000C94E4000C94E4000C94E4000C94E40070
:100080000C94E4000C94E4000C94E4000C94E40060
:100090000C9426090C94FC080C94E4000C94E400E5
:1000A0000C94E4000C94E4000C94E4000C94E40040
:1000B0000C94E4000C94E4000C94E4000C94E40030
:1000C0000C94E4000C94E4000C94E4000C94E40020
:1000D0000C94E4000C94E4000C94E4000C94E40010
:1000E0000C94E4000C94FC010C94CA080C94760364
:1000F0000C948B050C9492030C940F010C94120336
:100100000C94DA020C9445060C94C3040C945F0121
:100110000C94060A0C947D060C945A030C940E0160
:100120000C940D010C94E7050C9415050C947105C5
:100130000C943C010C9457050C946D010C94C5066D
:100140000C944B010C94E7040C94AF010C94F60250
:100150000C94CD050C9495086364696E6F7073758B
:1001600078585B00060A11241FBECFEFD1E2DEBF34
:10017000CDBF00E00CBF14E0A0E0B2E0ECEDF0E297
:1001800000E00BBF02C007900D92AC34B107D9F765
:1001900026E0ACE4B4E001C01D92AC30B207E1F758
:1001A00010E0C3EBD0E000E006C021970109802FEA
:1001B000FE010E940B0DC23BD10780E00807A9F7A2
:1001C0000E94590A0C946C100C940000FC01A08948
:1001D000B18982E08C93A485B5851C92A685B785EC
:1001E0008FEC8C93108EA489B58986E08C93A289BC
:1001F000B3898C9180618C93A289B3898C9188603A
:100200008C93A289B3898C9180688C930288F3893E
:10021000E02D80818F7D8083089508950895AF92A9
:10022000BF92CF92DF92EF92FF920F931F93CF93E3
:10023000DF936C017B018B01040F151FEB015E0145
:10024000AE18BF08C017D10759F06991D601ED91DA
:10025000FC910190F081E02DC6011995892B79F769
:10026000C501DF91CF911F910F91FF90EF90DF902B
:10027000CF90BF90AF900895FC01538D448D252FF2
:1002800030E0842F90E0821B930B541710F0CF9630
:10029000089501970895FC01918D828D981761F062
:1002A000A28DAE0FBF2FB11D5D968C91928D9F5F79
:1002B0009F73928F90E008958FEF9FEF0895FC0158
:1002C000918D828D981731F0828DE80FF11D858D0B
:1002D00090E008958FEF9FEF0895FC01918D228D9E
:1002E000892F90E0805C9F4F821B91098F73992723
:1002F000089582ED94E00E946D0121E0892B09F4BC
:1003000020E0822F08958FE695E00E946D0121E0A4
:10031000892B09F420E0822F0895FC01A48DA80FF9
:10032000B92FB11DA35ABF4F2C91848D90E0019637
:100330008F739927848FA689B7892C93A089B18957
:100340008C91837080648C93938D848D981306C0F8
:100350000288F389E02D80818F7D80830895EF925C
:10036000FF920F931F93CF93DF93EC0181E0888F6F
:100370009B8D8C8D98131AC0E889F989808185FF3F
:1003800015C09FB7F894EE89FF896083E889F989E1
:1003900080818370806480839FBF81E090E0DF91E3
:1003A000CF911F910F91FF90EF900895F62E0B8D36
:1003B00010E00F5F1F4F0F731127E02E8C8D8E11F1
:1003C0000CC00FB607FCFACFE889F989808185FF58
:1003D000F5CFCE010E948D01F1CFEB8DEC0FFD2FFB
:1003E000F11DE35AFF4FF0829FB7F8940B8FEA8913
:1003F000FB8980818062CFCFCF93DF93EC01888D22
:100400008823B9F0AA89BB89E889F9898C9185FD8F
:1004100003C0808186FD0DC00FB607FCF7CF8C911D
:1004200085FFF2CF808185FFEDCFCE010E948D0147
:10043000E9CFDF91CF91089580E090E0892B29F0FA
:100440000E94830181110E94000080E090E0892BCE
:1004500029F00E94790181110E94000080E090E063
:10046000892B49F080E090E0892B29F00E94000060
:1004700081110E94000080E090E0892B49F080E02B
:1004800090E0892B29F00E94000081110C9400005B
:1004900008953FB7F8948091C8049091C904A09141
:1004A000CA04B091CB0426B5A89B05C02F3F19F014
:1004B0000196A11DB11D3FBFBA2FA92F982F8827E4
:1004C000BC01CD01620F711D811D911D42E0660FBF
:1004D000771F881F991F4A95D1F708958F929F9291
:1004E000AF92BF92CF92DF92EF92FF924B015C01ED
:1004F0000E9449026B017C010E9449026C197D092E
:100500008E099F09683E734081059105A8F321E09B
:10051000821A9108A108B10888EEC80E83E0D81E9F
:10052000E11CF11C81149104A104B10429F7FF908E
:10053000EF90DF90CF90BF90AF909F908F900895F5
:10054000E2E0F1E0808180618083089510920701EC
:100550008FEF8093080140984198089582B91092D6
:1005600007018FEF80930801409A41988BE891E052
:100570000197F1F7FB01460F571F83EE93E0429A74
:10058000DC011197F1F7209106012193DC0111970D
:10059000F1F74298DC011197F1F7E417F50779F7C5
:1005A0000E94A60212B88BE891E00197F1F781E072
:1005B00090E00895CF93DF93EC01BC016D5F7F4F16
:1005C00041E050E088810E94AE02892B61F481E015
:1005D00090E09E878D8787EE95E098878F838EE0E9
:1005E00091E09C878B87DF91CF910895CF93DF9324
:1005F000EC01BC016D5F7F4F42E050E088810E94BA
:10060000AE02892B61F481E090E09E878D8787EEB2
:1006100095E098878F838EE091E09C878B87DF91B0
:10062000CF910895CF93DF93EC01BC016D5F7F4FB5
:1006300044E050E088810E94AE02892B61F481E0A1
:1006400090E09E878D8787EE95E098878F838EE078
:1006500091E09C878B87DF91CF91089582B98FEFCE
:1006600080930701109208014098419A8BE891E02D
:100670000197F1F7FB01460F571F83EE93E021919D
:1006800020930801DC011197F1F7429ADC011197E0
:10069000F1F74298DC011197F1F7E417F50779F7C4
:1006A0000E94A60212B88BE891E00197F1F781E071
:1006B00090E00895CF93DF93EC01BC016D5F7F4F15
:1006C00041E050E088810E942E03892B61F482E092
:1006D00090E09E878D878DEC95E09A8789878EE0E4
:1006E00091E09C878B87DF91CF910895CF93DF9323
:1006F000EC01BC016D5F7F4F42E050E088810E94B9
:100700002E03892B61F482E090E09E878D878DEC2B
:1007100095E09A8789878EE091E09C878B87DF91AF
:10072000CF910895CF93DF93EC01BC016D5F7F4FB4
:1007300044E050E088810E942E03892B61F482E01E
:1007400090E09E878D878DEC95E09A8789878EE073
:1007500091E09C878B87DF91CF910895FB010190F9
:100760000020E9F73197AF01461B570BDC01ED91F3
:10077000FC910280F381E02D19948F929F92AF92A9
:10078000BF92EF92FF920F931F93CF93DF93CDB75A
:10079000DEB7A1970FB6F894DEBF0FBECDBF7C01C8
:1007A000FA01CB0119A2223008F42AE08E010F5D74
:1007B0001F4F822E912CB12CA12CBF01A5019401B9
:1007C0000E94E90CF901CA016A300CF5605DD8019C
:1007D0006E938D01232B242B252B79F790E080E05D
:1007E000109721F0BD01C7010E94AE03A1960FB67C
:1007F000F894DEBF0FBECDBFDF91CF911F910F9157
:10080000FF90EF90BF90AF909F908F900895695C9C
:10081000DECFCF92DF92EF92FF920F931F93CF9391
:10082000DF936B01770FEE08FF08F7FE1FC0EC01A6
:10083000E881F9810190F081E02D6DE219958C013C
:1008400044275527BA014C195D096E097F092AE032
:10085000CE010E94BD03800F911FDF91CF911F91A8
:100860000F91FF90EF90DF90CF9008952AE0B701AD
:10087000A601DF91CF911F910F91FF90EF90DF9034
:10088000CF900C94BD03FF920F931F93CF93DF93F0
:10089000EC01F62E617070E00E940904F1FA6627FF
:1008A00060F970E0CE010E940904F2FA662760F94F
:1008B00070E0CE010E940904F3FA662760F970E047
:1008C000CE010E940904F4FA662760F970E0CE01B7
:1008D0000E940904F5FA662760F970E0CE010E94D3
:1008E0000904F6FA662760F970E0CE010E94090457
:1008F000FF1CFF24FF1C6F2D70E0CE01DF91CF9114
:100900001F910F91FF900C9409040F931F93CF93A5
:10091000DF93C82FCB01D0E0BE010E9409040091F3
:10092000CE041091CF040115110569F0BE01C80174
:100930000E9409046EE572E0C801DF91CF911F911A
:100940000F910C94AE03DF91CF911F910F910895F9
:100950000F931F93CF93DF938C01D0E0C0E061151C
:10096000710519F00E94AE03EC016EE572E0C8015A
:100970000E94AE038C0F9D1FDF91CF911F910F91AD
:1009800008950C94AE030F931F93CF93DF938C01C4
:10099000EB01FC0180810E94850461E672E0CE01DA
:1009A0000E94C104F8016381CE010E94430466E6FF
:1009B00072E0CE010E94A804E881F9810680F781E7
:1009C000E02DCE01DF91CF911F910F9119940F93DC
:1009D0001F93CF93DF938C01EB01FC0180810E9478
:1009E000850461E672E0CE010E94C104F8016381D2
:1009F000CE010E94430466E672E0CE010E94C1046B
:100A0000F8016481CE010E94430466E672E0CE01E3
:100A10000E94A804E881F9810680F781E02DCE01CB
:100A2000DF91CF911F910F9119940F931F93CF9343
:100A3000DF938C01EB01FC0180810E94850461E65B
:100A400072E0CE010E94C104F8016381CE010E94D0
:100A5000430466E672E0CE010E94C104F80164819D
:100A6000CE010E94430466E672E0CE010E94C104FA
:100A7000F8016581CE010E94430466E672E0CE0172
:100A80000E94C104F8016681CE010E94430466E61B
:100A900072E0CE010E94A804E881F9810680F78106
:100AA000E02DCE01DF91CF911F910F911994CF933B
:100AB000DF93EB01FC0180810E94850465E672E012
:100AC000CE010E94C10468E672E0CE010E94A80433
:100AD000E881F9810680F781E02DCE01DF91CF9189
:100AE0001994CF93DF93EB01FC0180810E94850470
:100AF00065E672E0CE010E94C10463E872E0CE01B7
:100B00000E94A804E881F9810680F781E02DCE01DA
:100B1000DF91CF911994CF93DF93E901A0914C0419
:100B2000B0914D041097B1F13C9136171706C1F002
:100B30001F960D90BC91A02DF5CF1796ED91FC91CD
:100B40001897BC01CD01DF91CF9119941996ED91C1
:100B5000FC911A97AE01BC01CD01DF91CF911994A0
:100B60004130510551F34230510581F3EC01432FDF
:100B700050E070E060E02AE00E94BD0365E672E0AC
:100B8000CE010E94C1046EE972E0CE01DF91CF91E7
:100B90000C94A80462EB72E0F9CFCF93DF93EB01E2
:100BA000FC0180810E94850465E672E0CE010E940E
:100BB000C10463EC72E0CE010E94A804E881F981CF
:100BC0000680F781E02DCE01DF91CF911994CF936C
:100BD000DF93EB01FC0180810E94850465E672E0F1
:100BE000CE010E94C10463EC72E0CE010E94A80411
:100BF000E881F9810680F781E02DCE01DF91CF9168
:100C00001994CF93DF93DC01FC0101900020E9F7F8
:100C10003197E81BF90B9C012F5F3F4F50E040E0FC
:100C2000C9018A1B9B0B8E179F0768F4C9014617E1
:100C3000570759F02F5F3F4FEC0188818B3381F7C5
:100C40004F5F5F4FEDCF90E080E0DF91CF9108954F
:100C5000FC0101900020E9F731979F01281B390B17
:100C6000FC0190E080E08217930761F041918617C4
:100C7000970731F481E090E0403331F480E008954B
:100C80000196F1CF80E090E008958F929F92AF920D
:100C9000BF92EF92FF920F931F93CF93DF938C013C
:100CA0007A01D0E0C0E0812C912C54018394BE01E4
:100CB000C7010E942806B501A4010C2E04C0440FF0
:100CC000551F661F771F0A94D2F7F8012381892BDD
:100CD00089F0422B43832196C830D10541F7DF913B
:100CE000CF911F910F91FF90EF90BF90AF909F9089
:100CF0008F90089540954223EDCF8F929F92AF92AF
:100D0000BF92CF92DF92EF92FF920F931F93CF93F8
:100D1000DF936A01EC01F12CE12C812C912C540120
:100D2000839410E000E0B8016E0D7F1DC6010E94A3
:100D30002806B501A401002E04C0440F551F661FEC
:100D4000771F0A94D2F72B81892BE1F0422B4B833A
:100D50000F5F1F4F0830110531F7219688E0E80E2C
:100D6000F11C80E1E816F104E1F6DF91CF911F91CB
:100D70000F91FF90EF90DF90CF90BF90AF909F903A
:100D80008F90089540954223E2CF8F929F92AF9229
:100D9000BF92CF92DF92EF92FF920F931F93CF9368
:100DA000DF936A01EC01F12CE12C812C912C540190
:100DB000839410E000E0B8016E0D7F1DC6010E9413
:100DC0002806B501A401002E04C0440F551F661F5C
:100DD000771F0A94D2F72B81892BE1F0422B4B83AA
:100DE0000F5F1F4F0830110531F7219688E0E80E9C
:100DF000F11C80E2E816F104E1F6DF91CF911F913A
:100E00000F91FF90EF90DF90CF90BF90AF909F90A9
:100E10008F90089540954223E2CF2F923F924F92B8
:100E20005F926F927F928F929F92AF92BF92CF927A
:100E3000DF92EF92FF920F931F93CF93DF9300D037
:100E400000D0CDB7DEB78C015B01DB01ED91FC91E9
:100E50000284F385E02DCB011995CC9709F06FC082
:100E60008FB7F8944091C4045091C5046091C604B2
:100E70007091C7048FBF7801B1E6EB0EF11CF7014A
:100E8000448355836683778380819181A281B38176
:100E9000840F951FA61FB71F80879187A287B387EE
:100EA00081E090E09587848780E4D8011D928A953F
:100EB000E9F76801B0E4CB0ED11C81E2F601119292
:100EC0008A95E9F78CE3D8018D934D013801BFE392
:100ED0006B0E711CF70184859585892B39F12FB72D
:100EE000F8948091C4049091C504A091C604B09177
:100EF000C7042FBF44815581668177812084318466
:100F000042845384421553056405750588F584179A
:100F10009507A607B70728F082159305A405B50520
:100F200088F1D7011D961C921E921C978091CE04C9
:100F30009091CF046DEC72E0009709F070C0269696
:100F40000FB6F894DEBF0FBECDBFDF91CF911F91DA
:100F50000F91FF90EF90DF90CF90BF90AF909F9058
:100F60008F907F906F905F904F903F902F9008955B
:100F700082159305A405B50528F084179507A607E3
:100F8000B70778F2D501ED91FC910284F385E02D4D
:100F9000C50119958F3F980709F49CCF86149704D3
:100FA000A9F1F40181934F01CE9709F093CF1E82EE
:100FB0001D8270E060E0C8010E940106009791F177
:100FC0009E012B5F3F4F3F932F9325E033E03F93EC
:100FD0002F939F938F930E941C0D7C010F900F9075
:100FE0000F900F900F900F900197E1F461E070E087
:100FF000C8010E9401060097F1F48091CE049091FF
:10100000CF046AE273E0009751F499CF8091CE0447
:101010009091CF04009709F492CF65EE72E00E94A0
:10102000A8048DCF8091CE049091CF0469E073E045
:101030000097A9F784CF9E012F5F3F4F490124E01D
:10104000D4011D922A95E9F7FC01D4019C012D5F82
:101050003F4F81918B3351F462E273E0C4010E94EF
:10106000130D892B51F4F12CE12C0FC08E33A1F319
:101070008D932E173F0769F7EFCF66E273E0C40147
:101080000E94130D892B09F0B8CFF701EE0FFF1F57
:10109000EE0FFF1FEC5BFD4FE280F380E114F104E3
:1010A00009F4ABCF81E2F60111928A95E9F762E08B
:1010B00070E0C8010E9401060097D9F0FC01D6013A
:1010C0009C01205E3F4F81918B3351F08E3341F074
:1010D00090ED980F9230D0F48D93E217F30799F7C3
:1010E0008091CE049091CF04009719F0B6010E9430
:1010F000A8046D817E81F801E159FF4F0190F081D4
:10110000E02D9601A701C501199519CF81E2D601FD
:101110001D928A95E9F78091CE049091CF0462E404
:1011200073E0009709F07BCF0ACFCF93DF936091F4
:10113000CC047091CD0482E594E00E940D07C0912B
:101140004C04D0914D04209741F0EB85FC85CE01F5
:1011500019950F84D889C02DF6CFE0914C04F091F9
:101160004D04309741F085859685892B81F407845D
:10117000F089E02DF6CF809102018F7E80930201ED
:101180002C9A8AEC98E09093D1048093D004DF915C
:10119000CF910895CF93DF936091CC047091CD04EB
:1011A00082E594E00E940D07C0914C04D0914D045B
:1011B000209741F0EB85FC85CE0119950F84D889E5
:1011C000C02DF6CFE0914C04F0914D04309789F09A
:1011D00085859685892B21F40784F089E02DF6CF4B
:1011E0000E94A0022C9885E998E09093D104809306
:1011F000D004DF91CF9108951F920F920FB60F92F6
:1012000011240BB60F922F933F934F935F936F93DD
:101210007F938F939F93AF93BF93EF93FF9382ED51
:1012200094E00E948D01FF91EF91BF91AF919F914A
:101230008F917F916F915F914F913F912F910F907F
:101240000BBE0F900FBE0F901F9018951F920F921C
:101250000FB60F9211240BB60F922F938F939F937B
:10126000EF93FF93E091E204F091E3048081E09139
:10127000E804F091E90482FD1DC090818091EB04A7
:101280008F5F8F732091EC04821741F0E091EB04A3
:10129000F0E0EE52FB4F958F8093EB04FF91EF91BE
:1012A0009F918F912F910F900BBE0F900FBE0F90BB
:1012B0001F9018958081F2CF1F920F920FB60F9258
:1012C00011240BB60F922F933F934F935F936F931D
:1012D0007F938F939F93AF93BF93EF93FF938FE68B
:1012E00095E00E948D01FF91EF91BF91AF919F9189
:1012F0008F917F916F915F914F913F912F910F90BF
:101300000BBE0F900FBE0F901F9018951F920F925B
:101310000FB60F9211240BB60F922F938F939F93BA
:10132000EF93FF93E0917F05F09180058081E0913C
:101330008505F091860582FD1DC09081809188050C
:101340008F5F8F7320918905821741F0E0918805A6
:10135000F0E0E159FA4F958F80938805FF91EF9166
:101360009F918F912F910F900BBE0F900FBE0F90FA
:101370001F9018958081F2CF1F920F920FB60F9297
:1013800011242F933F938F939F93AF93BF9380919B
:10139000C4049091C504A091C604B091C7043091D3
:1013A000C30423E0230F2D3758F50196A11DB11D6D
:1013B0002093C3048093C4049093C504A093C604EF
:1013C000B093C7048091C8049091C904A091CA0445
:1013D000B091CB040196A11DB11D8093C8049093D8
:1013E000C904A093CA04B093CB04BF91AF919F915D
:1013F0008F913F912F910F900FBE0F901F901895D6
:1014000026E8230F0296A11DB11DD2CFE2EDF4E034
:101410001382128248EE53E060E070E0448355830B
:101420006683778380E592E0918380832DEC30E0C2
:10143000358724872CEC30E03787268728EC30E08E
:10144000318B208B29EC30E0338B228B2AEC30E07F
:10145000358B248B2EEC30E0378B268B118E128E41
:10146000138E148EEFE6F5E01382128244835583C7
:10147000668377839183808385EC90E0958784876A
:1014800084EC90E09787868780EC90E0918B808B4E
:1014900081EC90E0938B828B82EC90E0958B848B37
:1014A00086EC90E0978B868B118E128E138E148EA5
:1014B0000895789484B5826084BD84B5816084BDCC
:1014C00085B5826085BD85B5816085BD80916E00E2
:1014D000816080936E001092810080918100826013
:1014E0008093810080918100816080938100809150
:1014F00080008160809380008091B100846080933F
:10150000B1008091B00081608093B0008091910023
:10151000826080939100809191008160809391001E
:10152000809190008160809390008091A100826002
:101530008093A1008091A10081608093A10080919F
:10154000A00081608093A00080912101826080933F
:1015500021018091210181608093210180912001EE
:1015600081608093200180917A00846080937A006A
:1015700080917A00826080937A0080917A00816005
:1015800080937A0080917A00806880937A0010922C
:10159000C1008DE091E09093D1048093D00460E18C
:1015A00077E280E090E00E946E028FE695E09093F3
:1015B000CF048093CE040E94E60061E070E080E0FA
:1015C00090E00E946E028091010180618093010190
:1015D000809102018F7E8093020161E070E080E0E3
:1015E00090E00E946E020E94A0026EE071E080E036
:1015F00090E00E946E02809102018F7E8093020132
:1016000080910101877F80930101809102018860B0
:101610008093020161E070E080E090E00E946E0241
:101620008091000183FD1DC06EE071E080E090E0DC
:101630000E946E020E94A0026EE071E080E090E0E5
:101640000E946E02809102018F7E80930201809140
:10165000CE049091CF04009721F067E573E00E94DB
:10166000A804249A2C988FEF81B912B81092070120
:101670008093080187E087B988EF88B961E070E05E
:1016800080E090E00E946E02E2E5F4E080E4DF0199
:101690001D928A95E9F7E2E9F4E081E2EF011992FF
:1016A0008A95E9F782E390E0A0E0B0E08093B3048C
:1016B0009093B404A093B504B093B6048091BF0492
:1016C0009091C004892B99F08091B7049091B8044F
:1016D000A091B904B091BA04C296A11DB11D809326
:1016E000BB049093BC04A093BD04B093BE048BE8EC
:1016F00095E09093C2048093C10482ED94E09093AE
:10170000CD048093CC040E94E60061E070E080E0AC
:1017100090E00E946E02E0E0F2E023E332E0DF01BD
:101720002A173B07C9F58091500490915104C0914C
:101730004C04D0914D04A0914E04B0914F0444E468
:1017400052E04E175F0709F436C13E2F2F2F8F3F0F
:10175000910509F008F44EC0909351048093500411
:10176000D0934D04C0934C04B0934F04A0934E0407
:101770008091CE049091CF04009721F06DE873E042
:101780000E94A8048091CE049091CF046FEA73E088
:10179000009709F053C026C01C91CD014196EC0181
:1017A0004881141322C08091CE049091CF040097F9
:1017B00021F06EE673E00E94C1048091CE04909106
:1017C000CF04009739F0412F50E070E060E02AE04C
:1017D0000E94BD038091CE049091CF046EE773E028
:1017E000009761F50E94A002D9C028173907B1F609
:1017F000519696CF209759F05096FC93EE931F97F1
:10180000108A178601967196A32FB22F9ACFEF01F7
:10181000F7CF808181111FC08091CE049091CF04B9
:10182000009721F06BEC73E00E94A8048091CE0435
:101830009091CF040097B1F261EF73E00E94A80489
:101840008091CE049091CF04009761F26CE274E035
:101850000E94A804C7CF8181928101970697B8F5AD
:101860000784F089E02D3097A1F682E1282E83E0ED
:10187000382E9EE0492E91E0592E26E7622E23E075
:10188000722E0DE716E03AE5E32E33E0F32E45E441
:10189000C42E46E0D42E52E9A52E53E0B52E65ECB9
:1018A000862E66E0962E209709F465C089819A817C
:1018B00083309105B9F1A8F481309105F1F026EF5C
:1018C00032E082309105D9F05C864B861AC0809157
:1018D000CE049091CF0460E174E0009709F0AECFA0
:1018E00081CF8530910541F100F18630910561F796
:1018F000BC86AB869A8689861CC02AED32E03C877E
:101900002B8721E735E03A87298782309105C9F096
:101910008330910559F1019761F423EC34E0388765
:101920002F8313C03C862B86ECCFFC86EB86DA86B1
:10193000C98627E535E0F3CF7C866B861A87098751
:10194000F8CF87EE94E098878F83FE01339684E08A
:10195000DF011D928A95E9F7EB85FC85CE0119958B
:101960001E861D860F84D889C02D9DCFA5E1B5E0C8
:10197000B887AF83EACF68EE73E080E090E00E9422
:101980006E022C9A8AEC98E09093D1048093D00454
:101990008091CE049091CF04009741F4E091D0045F
:1019A000F091D10419950E941C02F8CF64E474E010
:1019B0000E94A804F3CF9093510480935004D093D5
:1019C0004D04C0934C04B0934F04A0934E04FE0109
:1019D0004ACFA1E21A2EAA1BBB1BFD010DC0AA1FF4
:1019E000BB1FEE1FFF1FA217B307E407F50720F088
:1019F000A21BB30BE40BF50B661F771F881F991F03
:101A00001A9469F760957095809590959B01AC014B
:101A1000BD01CF010895EE0FFF1F881F8BBF0790F8
:101A2000F691E02D1994FB01DC018D910190801954
:101A30000110D9F3990B0895CF93DF93CDB7DEB79B
:101A40002E970FB6F894DEBF0FBECDBF85E08C8316
:101A50008C899D899A838983AE01485E5F4F6E8928
:101A60007F89CE0101960E94E80E2E960FB6F8945B
:101A7000DEBF0FBECDBFDF91CF91089520FD09C01D
:101A8000FC0123FD05C022FF02C0738362835183E2
:101A90004083089544FD17C046FD1DC0DB01FC01D5
:101AA000AA0FBB1FEE1FFF1F1094D1F76A0F7B1FF9
:101AB0008E1F9F1F660F771F881F991F620F711D52
:101AC000811D911D089533E0660F771F881F991FB0
:101AD0003150D1F7F3CF34E0F7CF0F931F93CF936B
:101AE000DF938C01C8010E941510EC0197FD08C01E
:101AF0000E940110892BB1F7B801CE010E9451104C
:101B0000CE01DF91CF911F910F9108958F929F92F7
:101B1000AF92BF92EF92FF920F931F93CF93DF93F9
:101B20008C01D62F7A01B22E0E9415109C0133270A
:101B30002B32310529F02D323105A9F46894B7F81C
:101B4000D15061F480E0DF91CF911F910F91FF9010
:101B5000EF90BF90AF909F908F900895C8010E9422
:101B6000151097FDEFCFCB2DCD7F2B2D2073F9F4E2
:101B70008033E9F4AA24AA94AD0E89F0C8010E942A
:101B8000151097FD0CC0282F2F7D283561F4C264F5
:101B9000D25029F0C8010E94151097FF08C0812C6F
:101BA000912C54011BC0B6FE2BC0C260DA2D812CD3
:101BB000912C540120ED280F283028F1C4FD09C0D4
:101BC0002A3008F1C6FF05C02F7D3FEE320F3630B8
:101BD000C8F0B8010E945110C1FFB4CFC7FF08C0C0
:101BE000B094A09490948094811C911CA11CB11C71
:101BF0002C2FB501A401C7010E943E0D81E0A3CFA7
:101C0000C261D4CF27504C2FC501B4010E944A0DA8
:101C10004B015C01C260D15009F3C8010E9415104C
:101C200097FFC8CFD9CF7F928F929F92AF92BF92EA
:101C3000CF92DF92EF92FF920F931F93CF93DF9398
:101C4000CDB7DEB7A0970FB6F894DEBF0FBECDBFFD
:101C50005C01962E7A01CE0101966C0180E2F601BC
:101C600011928A95E9F7F501B381890130E020E00E
:101C7000712C812CA0E041E050E0F801B3FD85918A
:101C8000B3FF8191982F8F01811117C010E000E000
:101C9000C801A0960FB6F894DEBF0FBECDBFDF918E
:101CA000CF911F910F91FF90EF90DF90CF90BF9059
:101CB000AF909F908F907F9008958E3519F42115E5
:101CC000310541F1A21713064CF48D3549F18D32DF
:101CD00029F4811006C0882483941DC0882009F44B
:101CE00064C0E92FE695E695E695EC0DFD2DF11D16
:101CF000892F8770BA0101C0660F8A95EAF7808143
:101D0000682B6083791651F0971510F49F5FE9CF27
:101D10009150E7CFA1E02F5F3F4FAFCF812CFBCF9A
:101D2000882019F08E8180628E83AA2359F0F601F3
:101D30009E012F5D3F4F8081809580833196E21711
:101D4000F307C9F788248394C5010E94151097FDF5
:101D500016C0E82FE695E695E695EC0DFD2DF11DF4
:101D6000208130E0AC014770552702C0359527959A
:101D70004A95E2F720FD06C0B5010E945110882067
:101D800069F084CFE114F10429F0F7018083C701E1
:101D900001967C019A94812C9110D6CFE114F10424
:101DA00009F476CFF701108273CFE82FE695E69518
:101DB000E695EC0DFD2DF11D982F9770BA0101C02D
:101DC000660F9A95EAF79081692B6083782EA3CFEE
:101DD0005F926F927F928F929F92AF92BF92CF92BB
:101DE000DF92EF92FF920F931F93CF93DF936C01DB
:101DF000EB015A01FC0117821682512CF601E38097
:101E0000FE01E3FC8591E3FE8191182FEF01882309
:101E1000E9F090E00E940110892B21F0C6010E9498
:101E20006D0DECCF153241F4FE01E3FC1591E3FE9C
:101E30001191EF01153269F4C6010E94151097FD4A
:101E40008EC01817D9F2B6010E945110852D90E06E
:101E50008AC000E01A3231F4E3FC1591E3FE1191DF
:101E6000EF0101E0F12C20ED210F2A3048F101FFB4
:101E700037C0FF2059F31836B1F11C3609F43DC0C4
:101E8000112321F3612F70E088E591E00E940A1090
:101E9000892BE1F2912C812C00FD06C0F501808098
:101EA0009180C50102965C011E3679F5F6014681E6
:101EB000578170E060E0202FC4010E943E0D9ECF4C
:101EC00002606F2D70E090E080E040E20E944A0DD9
:101ED000F62EFE01E3FC1591E3FE1191EF01C3CF55
:101EE000FF24FA94C8CFFE01E3FC1591E3FE1191A3
:101EF000EF01183609F0C4CF08600460FE01E3FC6E
:101F00001591E3FE1191EF01BBCF1336C1F401FD32
:101F100002C0FF24F394C6010E94151097FD1FC054
:101F20008114910429F0F4018083C40101964C01CD
:101F3000FA94F110F0CF00FD61CF53945FCF1B35C1
:101F400011F59E01A4016F2DC6010E94130EEC0134
:101F5000892B89F7F6018381807309F477CF8FEF9E
:101F60009FEF511073CFDF91CF911F910F91FF9091
:101F7000EF90DF90CF90BF90AF909F908F907F9029
:101F80006F905F900895C6010E946D0D97FDE7CF99
:101F90001F36A9F130F4143641F0193639F00064D7
:101FA00005C01337B9F01537D1F70062202FA4010F
:101FB0006F2DC6010E94860D8111BDCFCBCF81143C
:101FC000910429F0F4016082C40101964C01FA9455
:101FD000FF2071F0C6010E9415103C0197FD08C05A
:101FE0000E940110892B59F3B601C3010E945110C0
:101FF0008114910409F49FCFF40110829CCF0061F9
:10200000D5CF91110C946910803219F08950855008
:10201000C8F70895FC010590061621F00020D9F7B5
:10202000C00108953197CF010895CF93DF93EC015C
:102030002B8120FF1AC026FF0CC02F7B2B838E81A3
:102040009F8101969F838E838A8190E0DF91CF915B
:10205000089522FF18C0E881F9818081082E000CC4
:10206000990B009729F420622B838FEF9FEFEECF1F
:102070003196F983E8832E813F812F5F3F4F3F8365
:102080002E839927E3CFEA85FB85199597FFF3CF38
:102090002B81019621F080E2822B8B83E6CF80E1B9
:1020A000FBCFFB01238120FF11C026FD0FC08F3F16
:1020B000980771F082832F7D2064238326813781E6
:1020C0002150310937832683992708958FEF9FEF99
:1020D0000895992788270895F894FFCF01020000FA
:1020E00000000000000000000000000000020100ED
:1020F00000000000000000000000000000000404D8
:1021000000000000000000000000000000000008C7
:1021100001000000000000000000000000000000BE
:10212000220301002603020000000000AF010F019E
:102130003C01FC016D014B015F010D0A00203D20B7
:10214000003A200067657420636F6D6D616E6420D6
:10215000697320756E737570706F72746564007347
:10216000657420636F6D6D616E6420697320756E98
:10217000737570706F7274656400756E73757070CE
:102180006F7274656420636F6D6D616E64006D6F56
:1021900064756C65206E6F7420666F756E64006286
:1021A0007573206572726F720073735F726561641C
:1021B000526571756573743A2074696D656F7574D5
:1021C0000073735F72656164526571756573743A0B
:1021D00020627566666572206F766572666C6F77D1
:1021E0000025643B0073735F636F6E74726F6C3AAB
:1021F000206964206E6F7420666F756E6400676579
:1022000074007365740073735F636F6E74726F6CC8
:102210003A2062616420636F6D6D616E6400737358
:102220005F636F6E74726F6C3A20626164206461E8
:1022300074610064656661756C7420627574746F96
:102240006E20697320646F776E006D6F64756C65C6
:1022500020616464726573732000206973206E6F5F
:102260007420756E69717565006D6F64756C654C71
:102270004C6973745F6164644974656D3A206C6580
:102280006E677468206C696D6974006661696C655D
:102290006420746F206275696C64206D6F64756C66
:1022A00065206C697374006D6F64756C6550617244
:1022B000616D5F636865636B416464726573733AF3
:1022C000206261642061646472657373006D6F6481
:1022D000756C655F636865636B506172616D3A2010
:1022E0006261642061646472657373006D6F64750C
:1022F0006C655F636865636B506172616D3A206203
:102300006164206B696E64006170706D6F64756CE0
:1023100065735F626567696E206661696C656400FC
:082320007374617274656400BE
:10E000000D9489F10D94B2F10D94B2F10D94B2F129
:10E010000D94B2F10D94B2F10D94B2F10D94B2F1F0
:10E020000D94B2F10D94B2F10D94B2F10D94B2F1E0
:10E030000D94B2F10D94B2F10D94B2F10D94B2F1D0
:10E040000D94B2F10D94B2F10D94B2F10D94B2F1C0
:10E050000D94B2F10D94B2F10D94B2F10D94B2F1B0
:10E060000D94B2F10D94B2F10D94B2F10D94B2F1A0
:10E070000D94B2F10D94B2F10D94B2F10D94B2F190
:10E080000D94B2F10D94B2F10D94B2F10D94B2F180
:10E090000D94B2F10D94B2F10D94B2F10D94B2F170
:10E0A0000D94B2F10D94B2F10D94B2F10D94B2F160
:10E0B0000D94B2F10D94B2F10D94B2F10D94B2F150
:10E0C0000D94B2F10D94B2F10D94B2F10D94B2F140
:10E0D0000D94B2F10D94B2F10D94B2F10D94B2F130
:10E0E0000D94B2F141546D656761323536300041AF
:10E0F000726475696E6F206578706C6F72657220DE
:10E1000073746B3530305632206279204D4C530099
:10E11000426F6F746C6F616465723E004875683F52
:10E1200000436F6D70696C6564206F6E203D200048
:10E130004350552054797065202020203D20005FF9
:10E140005F4156525F415243485F5F3D2000415658
:10E1500052204C696243205665723D20004743437C
:10E160002056657273696F6E203D20004350552024
:10E1700049442020202020203D20004C6F7720663D
:10E18000757365202020203D20004869676820665F
:10E190007573652020203D200045787420667573D6
:10E1A00065202020203D20004C6F636B2066757336
:10E1B000652020203D20004D617220203720323024
:10E1C000313300312E362E3800342E332E350056A2
:10E1D00023202020414444522020206F7020636F70
:10E1E00064652020202020696E73747275637469E1
:10E1F0006F6E2061646472202020496E74657272B3
:10E20000757074006E6F20766563746F7200726A49
:10E210006D702020006A6D70200057686174207056
:10E220006F72743A00506F7274206E6F7420737541
:10E2300070706F72746564004D7573742062652030
:10E2400061206C6574746572002000577269747483
:10E25000696E672045450052656164696E672045B7
:10E26000450045452065727220636E743D00504F35
:10E27000525400303D5A65726F2061646472003FF1
:10E280003D43505520737461747300403D454550C3
:10E29000524F4D207465737400423D426C696E6B41
:10E2A000204C454400453D44756D70204545505215
:10E2B0004F4D00463D44756D7020464C415348001B
:10E2C000483D48656C70004C3D4C69737420492F83
:10E2D0004F20506F72747300513D51756974005234
:10E2E0003D44756D702052414D00563D73686F7707
:10E2F00020696E7465727275707420566563746FF0
:10E30000727300593D506F727420626C696E6B00BD
:10E310002A0011241FBECFEFD1E2DEBFCDBF01E046
:10E320000CBF12E0A0E0B2E0EEE1FDEF03E00BBFB6
:10E3300002C007900D92A030B107D9F712E0A0E01B
:10E34000B2E001C01D92AE30B107E1F70F9460F367
:10E350000D948DFE01E20EBF0FEF0DBF11241FBE05
:10E360000D9460F30D9400F020E030E040ED57E0B4
:10E3700005C0FA013197F1F72F5F3F4F2817390792
:10E38000C0F308959C01260F311DC901A0E0B0E043
:10E390002F5F3F4FABBFFC018791882361F08093D3
:10E3A000C6008091C00086FFFCCF8091C0008064D1
:10E3B0008093C000EACF08958DE08093C6008091DD
:10E3C000C00086FFFCCF8091C00080648093C000B5
:10E3D0008AE08093C6008091C00086FFFCCF8091C8
:10E3E000C00080648093C00008950F94C2F10F9420
:10E3F000DCF10895FC019081992359F09093C600B7
:10E400008091C00086FFFCCF8091C0008064809323
:10E41000C0003196992379F70895282F982F929567
:10E420009F70892F805D8A3308F0895F8093C600D2
:10E430008091C00086FFFCCF8091C00080648093F3
:10E44000C000822F8F70982F905D9A3308F0995FEB
:10E450009093C6008091C00086FFFCCF8091C000E1
:10E4600080648093C00008959C01FB01853691056E
:10E470001CF46330710594F0C90164E670E00F94F8
:10E480002EFE605D7F4F6093C6008091C00086FFC6
:10E49000FCCF8091C00080648093C0002B30310598
:10E4A00014F43297B4F0C90164E670E00F942EFEC4
:10E4B0006AE070E00F942EFE605D7F4F6093C600AF
:10E4C0008091C00086FFFCCF8091C0008064809363
:10E4D000C000C9016AE070E00F942EFEC0968093E0
:10E4E000C6008091C00086FFFCCF8091C000806490
:10E4F0008093C00008951F93182F8EE692EE60E07F
:10E500000F94C2F11093C6008091C00086FFFCCF2B
:10E510008091C00080648093C0000F94DCF11F9153
:10E5200008952F923F924F925F926F927F928F92B7
:10E530009F92AF92BF92CF92DF92EF92FF920F9392
:10E540001F93DF93CF93CDB7DEB762970FB6F894E2
:10E55000DEBF0FBECDBF382E622ECA01DB015C01CB
:10E560006D01772420E2222E2E010894411C511CBB
:10E570008BC081E0A81680E0B80681E0C80680E084
:10E58000D80628F0C601AA27BB270F940DF2BB2797
:10E59000AD2D9C2D8B2D0F940DF28A2D0F940DF225
:10E5A0002092C6008091C00086FFFCCF8091C00001
:10E5B00080648093C0009DE29093C6008091C0006B
:10E5C00086FFFCCF8091C00080648093C0002092C1
:10E5D000C6008091C00086FFFCCF8091C00080649F
:10E5E0008093C00019828601750188249924A1E0D6
:10E5F0003A1651F03A1620F0B2E03B1661F409C029
:10E600000BBFF701779007C0C7010F9477FE782EF4
:10E6100002C0F7017080872D0F940DF22092C60082
:10E620008091C00086FFFCCF8091C0008064809301
:10E63000C000872D8052F401EF70F0708F3520F408
:10E64000E40DF51D708204C0E40DF51D8EE280839B
:10E650000894E11CF11C011D111D0894811C911CE2
:10E6600090E18916910409F0C2CF80E190E0A0E02A
:10E67000B0E0A80EB91ECA1EDB1E198AC2010F9493
:10E68000FAF10F94DCF16A94662009F072CF629679
:10E690000FB6F894DEBF0FBECDBFCF91DF911F91B3
:10E6A0000F91FF90EF90DF90CF90BF90AF909F9031
:10E6B0008F907F906F905F904F903F902F90089534
:10E6C0002F923F924F925F926F927F928F929F9282
:10E6D000AF92BF92CF92DF92EF92FF920F931F9370
:10E6E000DF93CF93CDB7DEB7CD53D1400FB6F894BB
:10E6F000DEBF0FBECDBF01E20EBF0FEF0DBF94B75F
:10E70000F894A89514BE80916000886180936000A1
:10E7100010926000789493FF05C0E0910002F091A0
:10E7200001021995279A2F9A8091C00082608093E8
:10E73000C00080E18093C40088E18093C1000000A4
:10E74000EE24FF24870144E0A42EB12CCC24DD2448
:10E7500024C0C5010197F1F70894E11CF11C011DCB
:10E76000111D21E2E2162EE4F20620E0020720E06D
:10E77000120718F031E0C32ED12CC801B70127ECE5
:10E780003BE140E050E00F9441FE611571058105C9
:10E79000910519F485B1805885B98091C00087FD35
:10E7A00003C0C114D104A9F2A6014F5F5F4FC25E3E
:10E7B000DE4F59834883CE51D140C25EDE4F8881FF
:10E7C0009981CE51D140019711F00D9410FEC05D9A
:10E7D000DE4F19821882C053D14060E0C15DDE4F28
:10E7E0001882CF52D14088249924C35DDE4F19820C
:10E7F0001882CD52D140C05EDE4F188219821A8233
:10E800001B82C052D140CE5CDE4F188219821A8220
:10E810001B82C253D140EE24FF2487010BBFF701B6
:10E8200007911691C45CDE4F19830883CC53D14005
:10E830000D940BFEC25EDE4F28813981CE51D1404E
:10E840002130310509F52091C600C25EDE4F1982E4
:10E850001882CE51D14022C02F5F3F4F4F4F5F4FA4
:10E86000213082E138078AE7480780E0580780F0C6
:10E87000C45CDE4FE881F981CC53D140EF5FFF4F9C
:10E8800019F0EE27FF27099420E030E040E050E047
:10E890008091C00087FFE0CF2091C600C35DDE4FAE
:10E8A00048815981CD52D1404F5F5F4FC35DDE4FEC
:10E8B00059834883CD52D140213209F063C64A3092
:10E8C000510508F05FC60894811C911C53E0851621
:10E8D000910409F059C600E010E018C081E280936D
:10E8E000C6008091C00086FFFCCF8091C00080648C
:10E8F0008093C0002F5F3F4F2931310579F70F9486
:10E90000DCF10F5F1F4F0530110519F020E030E0FA
:10E91000E5CF10920A0210920B0210920C02109294
:10E920000D02109206021092070210920802109235
:10E930000902109202021092030210920402109235
:10E9400005028FEE90EE60E00F94F5F180E191EE1C
:10E9500060E00F94C2F18091C00087FFFCCF9091DE
:10E96000C600903608F09F759032B8F09093C600BC
:10E970008091C00086FFFCCF8091C00080648093AE
:10E98000C000A0E2A093C6008091C00086FFFCCF2B
:10E990008091C00080648093C000983409F4D7C18E
:10E9A0009934B8F4923409F459C1933458F490333B
:10E9B00019F1903308F4E3C59F33A1F1903409F0C5
:10E9C000DEC5BDC0953409F470C1963409F0D7C5D1
:10E9D00098C1923509F42BC2933538F49C3409F46C
:10E9E000F5C1913509F0CBC518C2963509F445C279
:10E9F000993509F0C4C567C483E792EE62E00F94CD
:10EA0000F5F110920602109207021092080210927D
:10EA1000090210920A0210920B0210920C0210923C
:10EA20000D0213C18FE792EE62E00F94F5F18FEEC5
:10EA300090EE60E00F94F5F181E291EE60E00F94CA
:10EA4000C2F187EB91EE60E00F94F5F180E391EE77
:10EA500060E00F94C2F184EE90EE60E00F94F5F167
:10EA60008FE391EE60E00F94C2F186E090E061E008
:10EA700070E00F9434F20F94DCF18DE591EE60E0DC
:10EA80000F94C2F189EC91EE60E00F94F5F18EE401
:10EA900091EE60E00F94C2F183EC91EE60E00F9490
:10EAA000F5F18CE691EE60E00F94C2F18EE10F94E7
:10EAB0000DF288E90F940DF281E00F940DF20F949E
:10EAC000DCF18BE791EE60E00F94C2F119E0E0E039
:10EAD000F0E010935700E4918E2F0F940DF20F94F5
:10EAE000DCF18AE891EE60E00F94C2F1E3E0F0E03F
:10EAF00010935700E4918E2F0F940DF20F94DCF1D8
:10EB000089E991EE60E00F94C2F1E2E0F0E0109349
:10EB10005700E4918E2F0F940DF20F94DCF188EAE8
:10EB200091EE60E00F94C2F1E1E0F0E01093570045
:10EB30001491812F0F940DF20F94DCF107CF8BE825
:10EB400092EE62E00F94F5F18BE492EE60E00F94A8
:10EB5000F5F10F94DCF100E010E019C0C8016F2D51
:10EB60000F947FFEFF2031F489E492EE60E00F9471
:10EB7000C2F10BC0F092C6008091C00086FFFCCFAE
:10EB80008091C00080648093C0000F5F1F4FC80158
:10EB900081519F41A0E0B0E0ABBFFC01F790BAE229
:10EBA000FB1621F0E2E000301E07C1F60F94DCF105
:10EBB0000F94DCF187E592EE60E00F94F5F10F948D
:10EBC000DCF1CC24DD2400E010E01EC0C8010F946D
:10EBD00077FEF82E882331F489E492EE60E00F94FA
:10EBE000C2F10BC08093C6008091C00086FFFCCFAD
:10EBF0008091C00080648093C000FE1419F00894D6
:10EC0000C11CD11C0F5F1F4FC80181519F41A0E063
:10EC1000B0E0ABBFFC01E790FAE2EF1621F022E092
:10EC20000030120799F60F94DCF10F94DCF182E6C4
:10EC300092EE60E00F94C2F1C60161E070E00F94C3
:10EC400034F20F94DCF10F94DCF110920202109276
:10EC50000302109204021092050278CE89E992EE26
:10EC600062E00F94F5F1279A2F9A16C02F9880E052
:10EC700090E0E0EDF7E03197F1F7019684369105E9
:10EC8000C1F72F9A80E090E0E0EDF7E03197F1F7DF
:10EC9000019684369105C1F78091C00087FFE6CFC9
:10ECA0008091C00087FFFCCF64C485EA92EE62E0E9
:10ECB0000F94F5F140910202509103026091040219
:10ECC0007091050281E020E10F9491F2809102029F
:10ECD00090910302A0910402B091050280509F4FD1
:10ECE000AF4FBF4F8093020290930302A0930402A0
:10ECF000B093050280509041A040B04008F426CE69
:10ED0000A4CF83EB92EE62E00F94F5F140910602FE
:10ED100050910702609108027091090280E020E1A1
:10ED20000F9491F28091060290910702A09108023F
:10ED3000B091090280509F4FAF4FBF4F80930602A2
:10ED400090930702A0930802B0930902FFCD80ECD4
:10ED500092EE62E00F94F5F183E792EE60E00F949B
:10ED6000F5F18FE792EE60E00F94F5F18BE892EE0B
:10ED700060E00F94F5F189E992EE60E00F94F5F10F
:10ED800085EA92EE60E00F94F5F183EB92EE60E09D
:10ED90000F94F5F180EC92EE60E00F94F5F187ECC2
:10EDA00092EE60E00F94F5F188ED92EE60E00F9442
:10EDB000F5F18FED92EE60E00F94F5F18AEE92EEB0
:10EDC00060E00F94F5F183E093EEBDCD87EC92EE19
:10EDD00062E00F94F5F181E40F947BF282E40F94EA
:10EDE0007BF283E40F947BF284E40F947BF285E45E
:10EDF0000F947BF286E40F947BF287E40F947BF20E
:10EE000088E40F947BF28AE40F947BF28BE40F94F6
:10EE10007BF28CE40F947BF299CD88ED92EE62E068
:10EE20000F94F5F1772473948824992409C48FED05
:10EE300092EE62E00F94F5F140910A0250910B02BC
:10EE400060910C0270910D0282E020E10F9491F22A
:10EE500080910A0290910B02A0910C02B0910D02D8
:10EE600080509F4FAF4FBF4F80930A0290930B0289
:10EE7000A0930C02B0930D0269CD8AEE92EE62E08F
:10EE80000F94F5F184EE90EE60E00F94F5F18FECC5
:10EE900091EE60E00F94F5F1662477244301CC5D98
:10EEA000DE4F19821882C452D140D401C301B695F5
:10EEB000A79597958795CA5DDE4F88839983AA8326
:10EEC000BB83C652D140CC5DDE4FA881B981C4520C
:10EED000D1401196CC5DDE4FB983A883C452D14096
:10EEE000CD0162E070E00F9434F2B0E2B093C6005E
:10EEF0008091C00086FFFCCF8091C0008064809329
:10EF0000C000EDE2E093C6008091C00086FFFCCF18
:10EF10008091C00080648093C000F0E2F093C6004E
:10EF20008091C00086FFFCCF8091C00080648093F8
:10EF3000C000CA5DDE4FE880F9800A811B81C6529D
:10EF4000D140BB27A12F902F8F2D0F940DF2CA5DBA
:10EF5000DE4F8881C652D1400F940DF2B0E2FB2EF5
:10EF6000F092C6008091C00086FFFCCF8091C00067
:10EF700080648093C0000DE30093C6008091C000C0
:10EF800086FFFCCF8091C00080648093C00010E2B7
:10EF90001093C6008091C00086FFFCCF8091C00016
:10EFA00080648093C0008BBEF3012791C65DDE4F65
:10EFB0002883CA52D140A22EBB24CC24DD2408943D
:10EFC000611C711C811C911C8BBEF3018791282E42
:10EFD0003324442455240894611C711C811C911C09
:10EFE0008BBEF3013791C55DDE4F3883CB52D140E4
:10EFF0000894611C711C811C911C8BBEF30147910C
:10F00000C45DDE4F4883CC52D140ADEFEA2EAFEF66
:10F01000FA2EAFEF0A2FAFEF1A2F6E0C7F1C801E57
:10F02000911E142D032DF22CEE24EA0CFB1C0C1D5A
:10F030001D1D0F940DF220E22093C6008091C000A8
:10F0400086FFFCCF8091C00080648093C000C65DC5
:10F05000DE4F8881CA52D1400F940DF230E23093D6
:10F06000C6008091C00086FFFCCF8091C000806404
:10F070008093C000C45DDE4F8881CC52D1400F9494
:10F080000DF240E24093C6008091C00086FFFCCFA5
:10F090008091C00080648093C000C55DDE4F888190
:10F0A000CB52D1400F940DF250E25093C6008091A4
:10F0B000C00086FFFCCF8091C00080648093C000B8
:10F0C0008FEFE8168FEFF80680E0080780E018075A
:10F0D00031F484E092EE60E00F94C2F1DFC0D80119
:10F0E000C7018070907CA070B0708050904CA040A0
:10F0F000B040D1F52FEF3FE340E050E0E222F322B1
:10F1000004231523CA5DDE4FA880B980CA80DB8046
:10F11000C652D140AE0CBF1CC01ED11EAA0CBB1CD7
:10F12000CC1CDD1C8EE092EE60E00F94C2F1BB2798
:10F13000A12F902F8F2D0F940DF28E2D0F940DF285
:10F1400030E23093C6008091C00086FFFCCF8091F2
:10F15000C00080648093C0004EE34093C60080915D
:10F16000C00086FFFCCF87C08EE09EEFA0E0B0E03D
:10F17000E822F9220A231B239CE0E91694E9F90608
:10F1800090E0090790E0190709F088C0C45DDE4FE0
:10F19000A881CC52D140EA2EFF2400E010E0102FCD
:10F1A0000F2DFE2CEE24C55DDE4FB881CB52D14031
:10F1B000EB0EF11C011D111DD601C501817090706F
:10F1C000A070B070DC0199278827E80EF91E0A1F8D
:10F1D0001B1F20EF30E040E050E0A222B322C42207
:10F1E000D52241E1AA0CBB1CCC1CDD1C4A95D1F7F1
:10F1F000EA0CFB1C0C1D1D1D81E090E0A0E0B0E0BE
:10F20000282239224A225B2235E1220C331C441C7D
:10F21000551C3A95D1F7E20CF31C041D151D57013E
:10F220006801AA0CBB1CCC1CDD1C85E192EE60E0E1
:10F230000F94C2F1C801AA27BB270F940DF2BB2778
:10F24000A12F902F8F2D0F940DF28E2D0F940DF274
:10F2500090E29093C6008091C00086FFFCCF809121
:10F26000C00080648093C000AEE3A093C60080918C
:10F27000C00086FFFCCF8091C00080648093C000F6
:10F28000C601AA27BB270F940DF2BB27AD2D9C2DDD
:10F290008B2D0F940DF28A2D0F940DF20F94DCF14B
:10F2A000CC5DDE4FE881F981C452D140F99709F471
:10F2B0004DCBF4E0EF2EF12C012D112D6E0C7F1CA7
:10F2C000801E911EF2CD83E093EE62E00F94F5F183
:10F2D0008AE192EE60E00F94C2F18091C00087FF56
:10F2E000FCCF1091C6001F751093C6008091C0001E
:10F2F00086FFFCCF8091C00080648093C0000F9493
:10F30000DCF1812F81548A3108F036C1163409F4BA
:10F3100095C0173490F4133409F44EC0143430F40B
:10F320001134F1F0123409F01DC130C0143409F465
:10F3300059C0153409F016C16BC01A3409F4C4C0A1
:10F340001B3438F4173409F48FC0183409F00AC19B
:10F35000A1C01B3409F4D2C01C3409F003C1E8C0B9
:10F360008FEF81B90DC082B1809582B980E090E0C5
:10F37000E0EDF7E03197F1F70196883C9105C1F790
:10F380008091C00087FFEFCF12B8EFC08FEF84B934
:10F390000DC085B1809585B980E090E0E0EDF7E0A3
:10F3A0003197F1F70196883C9105C1F78091C00033
:10F3B00087FFEFCF15B8D9C08FEF87B90DC088B1DF
:10F3C000809588B980E090E0E0EDF7E03197F1F7C3
:10F3D0000196883C9105C1F78091C00087FFEFCF6F
:10F3E00018B8C3C08FEF8AB90DC08BB180958BB9A7
:10F3F00080E090E0E0EDF7E03197F1F70196883C8E
:10F400009105C1F78091C00087FFEFCF1BB8ADC059
:10F410008FEF8DB90DC08EB180958EB980E090E0F0
:10F42000E0EDF7E03197F1F70196883C9105C1F7DF
:10F430008091C00087FFEFCF1EB897C08FEF80BBD1
:10F440000DC081B3809581BB80E090E0E0EDF7E0F6
:10F450003197F1F70196883C9105C1F78091C00082
:10F4600087FFEFCF11BA81C08FEF83BB0DC084B38C
:10F47000809584BB80E090E0E0EDF7E03197F1F714
:10F480000196883C9105C1F78091C00087FFEFCFBE
:10F4900014BA6BC08FEF809301010FC080910201FD
:10F4A00080958093020180E090E0E0EDF7E03197F5
:10F4B000F1F70196883C9105C1F78091C00087FF64
:10F4C000EDCF1092020151C08FEF809304010FC065
:10F4D0008091050180958093050180E090E0E0ED4A
:10F4E000F7E03197F1F70196883C9105C1F78091DB
:10F4F000C00087FFEDCF1092050137C08FEF8093DA
:10F5000007010FC08091080180958093080180E079
:10F5100090E0E0EDF7E03197F1F70196883C910536
:10F52000C1F78091C00087FFEDCF109208011DC088
:10F530008FEF80930A010FC080910B01809580931B
:10F540000B0180E090E0E0EDF7E03197F1F70196F4
:10F55000883C9105C1F78091C00087FFEDCF1092E4
:10F560000B0103C085E292EEEEC98091C00087FFD7
:10F57000FCCF8091C600EAC988E392EEE4C98CE131
:10F5800091EEE1C988249924933011F1943028F444
:10F59000913089F09230B8F408C0953061F195301F
:10F5A000F0F0963009F048C043C02B3109F042C951
:10F5B00091E06BE13FC96227C15DDE4F2883CF52E6
:10F5C000D14092E037C9B22FA0E0622793E032C960
:10F5D000822F90E0A82BB92B622794E02BC92E3004
:10F5E00009F039C3622795E0C05DDE4F19821882A9
:10F5F000C053D1401FC9E1E0F0E0EC0FFD1FC05D3A
:10F60000DE4F08811981C053D140E00FF11F2083E4
:10F610000F5F1F4FC05DDE4F19830883C053D14079
:10F6200062270A171B0709F005C9D80196E002C92D
:10F63000261709F010C303C0973009F0FBC87724E0
:10F640009981933109F412C19431C8F4963009F4C8
:10F65000D8C0973050F4923009F406C1933009F4C1
:10F660006DC0913009F059C253C0913109F477C08F
:10F67000923108F0BBC0903109F04FC2F5C098310B
:10F6800009F487C0993150F4953109F4EFC09531F0
:10F6900008F4C6C1963109F040C2C2C19A3109F4DA
:10F6A0006CC09A3108F491C09B3109F45BC09D3164
:10F6B00009F033C29D81903359F48F81882311F46E
:10F6C0009EE11CC0813011F091E018C098E916C08D
:10F6D000892F807591F0903539F4E0E0F0E089E011
:10F6E0008093570094910AC0983539F4E3E0F0E034
:10F6F00089E080935700949101C090E01A821B82A8
:10F700008D818C831D829E831F8227E030E009C299
:10F710001A8288E08B8381E48C8386E58D8382E581
:10F720008E8389E48F8383E5888780E589878FE5E9
:10F730008A8782E38B872BE030E0F3C18A818139AD
:10F7400041F0823941F0803911F48FE005C080E04A
:10F7500003C082E001C08AE01A828B8344C0772410
:10F76000739482C08D81882311F48EE12CC0813086
:10F7700011F081E028C088E926C01A82E1E0F0E0BB
:10F7800089E08093570084918B831C8224E030E0D1
:10F79000C8C18B81803589F48C81883039F4E2E0EE
:10F7A000F0E089E08093570084910DC0E0E0F0E044
:10F7B00089E080935700849106C0E3E0F0E089E09F
:10F7C0008093570084911A82DFCF8D81836C99E0FA
:10F7D000E1E0F0E0082E90935700E89507B600FCB2
:10F7E000FDCF1A821B8223E030E09BC180EC8A832C
:10F7F000CE5CDE4F188219821A821B82C253D1401E
:10F800008EC18A8190E0A0E0B0E0582F44273327D2
:10F8100022278B8190E0A0E0B0E0DC0199278827C7
:10F82000282B392B4A2B5B2B8D8190E0A0E0B0E098
:10F83000282B392B4A2B5B2B8C8190E0A0E0B0E089
:10F84000BA2FA92F982F8827282B392B4A2B5B2BCF
:10F85000220F331F441F551FC05EDE4F288339839C
:10F860004A835B83C052D1401A8259C13A81C95C34
:10F87000DE4F3883C753D140CA5CDE4F1882C6536F
:10F88000D1408B81C82EDD24CA5CDE4F488159816E
:10F89000C653D140C42AD52A933109F082C0CE5C28
:10F8A000DE4F88819981AA81BB81C253D1408050AB
:10F8B000904CA340B04030F583E0CE5CDE4FE88052
:10F8C000F9800A811B81C253D140F70100935B008C
:10F8D00080935700E89507B600FCFDCFCE5CDE4F65
:10F8E000088119812A813B81C253D14000501F4FAA
:10F8F0002F4F3F4FCE5CDE4F088319832A833B8313
:10F90000C253D140C05EDE4F488159816A817B81FC
:10F91000C052D140DE011B9631E08C9111962C91A2
:10F9200011971296C75CDE4F2883C953D140C85C3B
:10F93000DE4F1882C853D14090E0C85CDE4FE881AA
:10F94000F981C853D1408E2B9F2B0C01FA01609393
:10F950005B0030935700E89511244E5F5F4F6F4F67
:10F960007F4F0EEFE02E0FEFF02ECE0CDF1CC114F8
:10F97000D10499F685E0C05EDE4F088119812A81A5
:10F980003B81C052D140F80120935B008093570027
:10F99000E89507B600FCFDCF81E180935700E8951C
:10F9A00035C0C05EDE4F88819981AA81BB81C0527B
:10F9B000D140B695A795979587957C018601ABE0D8
:10F9C000AA2EB12CAC0EBD1E0BC0D5016D915D01F0
:10F9D000C7010F947FFE0894E11CF11C01501040F8
:10F9E0000115110591F7A60160E070E0440F551F65
:10F9F000661F771FC05EDE4FE880F9800A811B8199
:10FA0000C052D1404E0D5F1D601F711F1A82C05E33
:10FA1000DE4F488359836A837B83C052D1407FC0C5
:10FA2000FA80C55CDE4FF882CB53D140C65CDE4F16
:10FA30001882CA53D1408B81C82EDD24C65CDE4FAC
:10FA400008811981CA53D140C02AD12A1A828981DA
:10FA5000BE016D5F7F4F843121F59601C05EDE4FA0
:10FA6000E880F9800A811B81C052D1400BBFF701A9
:10FA700087919691DB018C9311969C936E5F7F4FDB
:10FA8000D801C7010296A11DB11DC05EDE4F88835B
:10FA90009983AA83BB83C052D14022503040F1F6F3
:10FAA00036C0C05EDE4F288139814A815B81C052F9
:10FAB000D1400894C108D108760100E010E0089414
:10FAC000C11CD11C0894E11CF11C011D111DE20E8A
:10FAD000F31E041F151F21BDBB27A52F942F832FB5
:10FAE00082BD2F5F3F4F4F4F5F4FF89A80B5DB01CC
:10FAF0008D93BD012E153F054007510761F7C05E8C
:10FB0000DE4F288339834A835B83C052D1409601FC
:10FB10002D5F3F4FFB01108204C080EC8A8322E0FE
:10FB200030E08BE18093C6008091C00086FFFCCF5F
:10FB30008091C00080648093C000C15DDE4FF88179
:10FB4000CF52D140F093C6008091C00086FFFCCF19
:10FB50008091C00080648093C000432F3093C60022
:10FB60008091C00086FFFCCF8091C00080648093AC
:10FB7000C000922F2093C6008091C00086FFFCCF6A
:10FB80008091C00080648093C0008EE08093C600A6
:10FB90008091C00086FFFCCF8091C000806480937C
:10FBA000C00065E1C15DDE4FE880CF52D1406E25D7
:10FBB00069276427FE01319610C090819093C6009A
:10FBC0008091C00086FFFCCF31968091C000806498
:10FBD0008093C0006927215030402115310569F715
:10FBE0006093C6008091C00086FFFCCF8091C0006A
:10FBF00080648093C00085B1805885B9772081F4F6
:10FC0000C15DDE4F0881CF52D1400F5FC15DDE4F35
:10FC10000883CF52D14090E0A0E0B0E00D941AF4F8
:10FC200027982F9880E090E020ED37E0F901319798
:10FC3000F1F7019684369105C9F700008091C00064
:10FC40008D7F8093C00081E180935700E895EE2777
:10FC5000FF270994FFCF90E00D941AF497FB092E2B
:10FC600007260AD077FD04D02ED006D000201AF443
:10FC7000709561957F4F0895F6F7909581959F4F08
:10FC80000895A1E21A2EAA1BBB1BFD010DC0AA1FDD
:10FC9000BB1FEE1FFF1FA217B307E407F50720F0F5
:10FCA000A21BB30BE40BF50B661F771F881F991F70
:10FCB0001A9469F760957095809590959B01AC01B9
:10FCC000BD01CF010895AA1BBB1B51E107C0AA1FAC
:10FCD000BB1FA617B70710F0A61BB70B881F991FED
:10FCE0005A95A9F780959095BC01CD010895F99991
:10FCF000FECF92BD81BDF89A992780B50895262F31
:10FD0000F999FECF1FBA92BD81BD20BD0FB6F89400
:0EFD1000FA9AF99A0FBE01960895F894FFCF63
:00000001FF
