:100000000C94B3000C94E4000C94E4000C94E40011
:100010000C94E4000C94E4000C94E4000C94E400D0
:100020000C94E4000C94E4000C94E4000C94E400C0
:100030000C94E4000C94E4000C94E4000C94E400B0
:100040000C94E4000C94E4000C94E4000C94E400A0
:100050000C94E4000C94E4000C94E4000C94BC09AF
:100060000C94E4000C9486090C945C090C94E40054
:100070000C94E4000C94E4000C94E4000C94E40070
:100080000C94E4000C94E4000C94E4000C94E40060
:100090000C9426090C94FC080C94E4000C94E400E5
:1000A0000C94E4000C94E4000C94E4000C94E40040
:1000B0000C94E4000C94E4000C94E4000C94E40030
:1000C0000C94E4000C94E4000C94E4000C94E40020
:1000D0000C94E4000C94E4000C94E4000C94E40010
:1000E0000C94E4000C94FC010C94CA080C94760364
:1000F0000C948B050C9492030C940F010C94120336
:100100000C94DA020C9445060C94C3040C945F0121
:100110000C94060A0C947D060C945A030C940E0160
:100120000C940D010C94E7050C9415050C947105C5
:100130000C943C010C9457050C946D010C94C5066D
:100140000C944B010C94E7040C94AF010C94F60250
:100150000C94CD050C9495086364696E6F7073758B
:1001600078585B00060A11241FBECFEFD1E2DEBF34
:10017000CDBF00E00CBF14E0A0E0B2E0ECEDF0E297
:1001800000E00BBF02C007900D92AC34B107D9F765
:1001900026E0ACE4B4E001C01D92AC30B207E1F758
:1001A00010E0C3EBD0E000E006C021970109802FEA
:1001B000FE010E940B0DC23BD10780E00807A9F7A2
:1001C0000E94590A0C946C100C940000FC01A08948
:1001D000B18982E08C93A485B5851C92A685B785EC
:1001E0008FEC8C93108EA489B58986E08C93A289BC
:1001F000B3898C9180618C93A289B3898C9188603A
:100200008C93A289B3898C9180688C930288F3893E
:10021000E02D80818F7D8083089508950895AF92A9
:10022000BF92CF92DF92EF92FF920F931F93CF93E3
:10023000DF936C017B018B01040F151FEB015E0145
:10024000AE18BF08C017D10759F06991D601ED91DA
:10025000FC910190F081E02DC6011995892B79F769
:10026000C501DF91CF911F910F91FF90EF90DF902B
:10027000CF90BF90AF900895FC01538D448D252FF2
:1002800030E0842F90E0821B930B541710F0CF9630
:10029000089501970895FC01918D828D981761F062
:1002A000A28DAE0FBF2FB11D5D968C91928D9F5F79
:1002B0009F73928F90E008958FEF9FEF0895FC0158
:1002C000918D828D981731F0828DE80FF11D858D0B
:1002D00090E008958FEF9FEF0895FC01918D228D9E
:1002E000892F90E0805C9F4F821B91098F73992723
:1002F000089582ED94E00E946D0121E0892B09F4BC
:1003000020E0822F08958FE695E00E946D0121E0A4
:10031000892B09F420E0822F0895FC01A48DA80FF9
:10032000B92FB11DA35ABF4F2C91848D90E0019637
:100330008F739927848FA689B7892C93A089B18957
:100340008C91837080648C93938D848D981306C0F8
:100350000288F389E02D80818F7D80830895EF925C
:10036000FF920F931F93CF93DF93EC0181E0888F6F
:100370009B8D8C8D98131AC0E889F989808185FF3F
:1003800015C09FB7F894EE89FF896083E889F989E1
:1003900080818370806480839FBF81E090E0DF91E3
:1003A000CF911F910F91FF90EF900895F62E0B8D36
:1003B00010E00F5F1F4F0F731127E02E8C8D8E11F1
:1003C0000CC00FB607FCFACFE889F989808185FF58
:1003D000F5CFCE010E948D01F1CFEB8DEC0FFD2FFB
:1003E000F11DE35AFF4FF0829FB7F8940B8FEA8913
:1003F000FB8980818062CFCFCF93DF93EC01888D22
:100400008823B9F0AA89BB89E889F9898C9185FD8F
:1004100003C0808186FD0DC00FB607FCF7CF8C911D
:1004200085FFF2CF808185FFEDCFCE010E948D0147
:10043000E9CFDF91CF91089580E090E0892B29F0FA
:100440000E94830181110E94000080E090E0892BCE
:1004500029F00E94790181110E94000080E090E063
:10046000892B49F080E090E0892B29F00E94000060
:1004700081110E94000080E090E0892B49F080E02B
:1004800090E0892B29F00E94000081110C9400005B
:1004900008953FB7F8948091C8049091C904A09141
:1004A000CA04B091CB0426B5A89B05C02F3F19F014
:1004B0000196A11DB11D3FBFBA2FA92F982F8827E4
:1004C000BC01CD01620F711D811D911D42E0660FBF
:1004D000771F881F991F4A95D1F708958F929F9291
:1004E000AF92BF92CF92DF92EF92FF924B015C01ED
:1004F0000E9449026B017C010E9449026C197D092E
:100500008E099F09683E734081059105A8F321E09B
:10051000821A9108A108B10888EEC80E83E0D81E9F
:10052000E11CF11C81149104A104B10429F7FF908E
:10053000EF90DF90CF90BF90AF909F908F900895F5
:10054000E2E0F1E0808180618083089510920701EC
:100550008FEF8093080140984198089582B91092D6
:1005600007018FEF80930801409A41988BE891E052
:100570000197F1F7FB01460F571F83EE93E0429A74
:10058000DC011197F1F7209106012193DC0111970D
:10059000F1F74298DC011197F1F7E417F50779F7C5
:1005A0000E94A60212B88BE891E00197F1F781E072
:1005B00090E00895CF93DF93EC01BC016D5F7F4F16
:1005C00041E050E088810E94AE02892B61F481E015
:1005D00090E09E878D8787EE95E098878F838EE0E9
:1005E00091E09C878B87DF91CF910895CF93DF9324
:1005F000EC01BC016D5F7F4F42E050E088810E94BA
:10060000AE02892B61F481E090E09E878D8787EEB2
:1006100095E098878F838EE091E09C878B87DF91B0
:10062000CF910895CF93DF93EC01BC016D5F7F4FB5
:1006300044E050E088810E94AE02892B61F481E0A1
:1006400090E09E878D8787EE95E098878F838EE078
:1006500091E09C878B87DF91CF91089582B98FEFCE
:1006600080930701109208014098419A8BE891E02D
:100670000197F1F7FB01460F571F83EE93E021919D
:1006800020930801DC011197F1F7429ADC011197E0
:10069000F1F74298DC011197F1F7E417F50779F7C4
:1006A0000E94A60212B88BE891E00197F1F781E071
:1006B00090E00895CF93DF93EC01BC016D5F7F4F15
:1006C00041E050E088810E942E03892B61F482E092
:1006D00090E09E878D878DEC95E09A8789878EE0E4
:1006E00091E09C878B87DF91CF910895CF93DF9323
:1006F000EC01BC016D5F7F4F42E050E088810E94B9
:100700002E03892B61F482E090E09E878D878DEC2B
:1007100095E09A8789878EE091E09C878B87DF91AF
:10072000CF910895CF93DF93EC01BC016D5F7F4FB4
:1007300044E050E088810E942E03892B61F482E01E
:1007400090E09E878D878DEC95E09A8789878EE073
:1007500091E09C878B87DF91CF910895FB010190F9
:100760000020E9F73197AF01461B570BDC01ED91F3
:10077000FC910280F381E02D19948F929F92AF92A9
:10078000BF92EF92FF920F931F93CF93DF93CDB75A
:10079000DEB7A1970FB6F894DEBF0FBECDBF7C01C8
:1007A000FA01CB0119A2223008F42AE08E010F5D74
:1007B0001F4F822E912CB12CA12CBF01A5019401B9
:1007C0000E94E90CF901CA016A300CF5605DD8019C
:1007D0006E938D01232B242B252B79F790E080E05D
:1007E000109721F0BD01C7010E94AE03A1960FB67C
:1007F000F894DEBF0FBECDBFDF91CF911F910F9157
:10080000FF90EF90BF90AF909F908F900895695C9C
:10081000DECFCF92DF92EF92FF920F931F93CF9391
:10082000DF936B01770FEE08FF08F7FE1FC0EC01A6
:10083000E881F9810190F081E02D6DE219958C013C
:1008400044275527BA014C195D096E097F092AE032
:10085000CE010E94BD03800F911FDF91CF911F91A8
:100860000F91FF90EF90DF90CF9008952AE0B701AD
:10087000A601DF91CF911F910F91FF90EF90DF9034
:10088000CF900C94BD03FF920F931F93CF93DF93F0
:10089000EC01F62E617070E00E940904F1FA6627FF
:1008A00060F970E0CE010E940904F2FA662760F94F
:1008B00070E0CE010E940904F3FA662760F970E047
:1008C000CE010E940904F4FA662760F970E0CE01B7
:1008D0000E940904F5FA662760F970E0CE010E94D3
:1008E0000904F6FA662760F970E0CE010E94090457
:1008F000FF1CFF24FF1C6F2D70E0CE01DF91CF9114
:100900001F910F91FF900C9409040F931F93CF93A5
:10091000DF93C82FCB01D0E0BE010E9409040091F3
:10092000CE041091CF040115110569F0BE01C80174
:100930000E9409046EE572E0C801DF91CF911F911A
:100940000F910C94AE03DF91CF911F910F910895F9
:100950000F931F93CF93DF938C01D0E0C0E061151C
:10096000710519F00E94AE03EC016EE572E0C8015A
:100970000E94AE038C0F9D1FDF91CF911F910F91AD
:1009800008950C94AE030F931F93CF93DF938C01C4
:10099000EB01FC0180810E94850461E672E0CE01DA
:1009A0000E94C104F8016381CE010E94430466E6FF
:1009B00072E0CE010E94A804E881F9810680F781E7
:1009C000E02DCE01DF91CF911F910F9119940F93DC
:1009D0001F93CF93DF938C01EB01FC0180810E9478
:1009E000850461E672E0CE010E94C104F8016381D2
:1009F000CE010E94430466E672E0CE010E94C1046B
:100A0000F8016481CE010E94430466E672E0CE01E3
:100A10000E94A804E881F9810680F781E02DCE01CB
:100A2000DF91CF911F910F9119940F931F93CF9343
:100A3000DF938C01EB01FC0180810E94850461E65B
:100A400072E0CE010E94C104F8016381CE010E94D0
:100A5000430466E672E0CE010E94C104F80164819D
:100A6000CE010E94430466E672E0CE010E94C104FA
:100A7000F8016581CE010E94430466E672E0CE0172
:100A80000E94C104F8016681CE010E94430466E61B
:100A900072E0CE010E94A804E881F9810680F78106
:100AA000E02DCE01DF91CF911F910F911994CF933B
:100AB000DF93EB01FC0180810E94850465E672E012
:100AC000CE010E94C10468E672E0CE010E94A80433
:100AD000E881F9810680F781E02DCE01DF91CF9189
:100AE0001994CF93DF93EB01FC0180810E94850470
:100AF00065E672E0CE010E94C10463E872E0CE01B7
:100B00000E94A804E881F9810680F781E02DCE01DA
:100B1000DF91CF911994CF93DF93E901A0914C0419
:100B2000B0914D041097B1F13C9136171706C1F002
:100B30001F960D90BC91A02DF5CF1796ED91FC91CD
:100B40001897BC01CD01DF91CF9119941996ED91C1
:100B5000FC911A97AE01BC01CD01DF91CF911994A0
:100B60004130510551F34230510581F3EC01432FDF
:100B700050E070E060E02AE00E94BD0365E672E0AC
:100B8000CE010E94C1046EE972E0CE01DF91CF91E7
:100B90000C94A80462EB72E0F9CFCF93DF93EB01E2
:100BA000FC0180810E94850465E672E0CE010E940E
:100BB000C10463EC72E0CE010E94A804E881F981CF
:100BC0000680F781E02DCE01DF91CF911994CF936C
:100BD000DF93EB01FC0180810E94850465E672E0F1
:100BE000CE010E94C10463EC72E0CE010E94A80411
:100BF000E881F9810680F781E02DCE01DF91CF9168
:100C00001994CF93DF93DC01FC0101900020E9F7F8
:100C10003197E81BF90B9C012F5F3F4F50E040E0FC
:100C2000C9018A1B9B0B8E179F0768F4C9014617E1
:100C3000570759F02F5F3F4FEC0188818B3381F7C5
:100C40004F5F5F4FEDCF90E080E0DF91CF9108954F
:100C5000FC0101900020E9F731979F01281B390B17
:100C6000FC0190E080E08217930761F041918617C4
:100C7000970731F481E090E0403331F480E008954B
:100C80000196F1CF80E090E008958F929F92AF920D
:100C9000BF92EF92FF920F931F93CF93DF938C013C
:100CA0007A01D0E0C0E0812C912C54018394BE01E4
:100CB000C7010E942806B501A4010C2E04C0440FF0
:100CC000551F661F771F0A94D2F7F8012381892BDD
:100CD00089F0422B43832196C830D10541F7DF913B
:100CE000CF911F910F91FF90EF90BF90AF909F9089
:100CF0008F90089540954223EDCF8F929F92AF92AF
:100D0000BF92CF92DF92EF92FF920F931F93CF93F8
:100D1000DF936A01EC01F12CE12C812C912C540120
:100D2000839410E000E0B8016E0D7F1DC6010E94A3
:100D30002806B501A401002E04C0440F551F661FEC
:100D4000771F0A94D2F72B81892BE1F0422B4B833A
:100D50000F5F1F4F0830110531F7219688E0E80E2C
:100D6000F11C80E1E816F104E1F6DF91CF911F91CB
:100D70000F91FF90EF90DF90CF90BF90AF909F903A
:100D80008F90089540954223E2CF8F929F92AF9229
:100D9000BF92CF92DF92EF92FF920F931F93CF9368
:100DA000DF936A01EC01F12CE12C812C912C540190
:100DB000839410E000E0B8016E0D7F1DC6010E9413
:100DC0002806B501A401002E04C0440F551F661F5C
:100DD000771F0A94D2F72B81892BE1F0422B4B83AA
:100DE0000F5F1F4F0830110531F7219688E0E80E9C
:100DF000F11C80E2E816F104E1F6DF91CF911F913A
:100E00000F91FF90EF90DF90CF90BF90AF909F90A9
:100E10008F90089540954223E2CF2F923F924F92B8
:100E20005F926F927F928F929F92AF92BF92CF927A
:100E3000DF92EF92FF920F931F93CF93DF9300D037
:100E400000D0CDB7DEB78C015B01DB01ED91FC91E9
:100E50000284F385E02DCB011995CC9709F06FC082
:100E60008FB7F8944091C4045091C5046091C604B2
:100E70007091C7048FBF7801B1E6EB0EF11CF7014A
:100E8000448355836683778380819181A281B38176
:100E9000840F951FA61FB71F80879187A287B387EE
:100EA00081E090E09587848780E4D8011D928A953F
:100EB000E9F76801B0E4CB0ED11C81E2F601119292
:100EC0008A95E9F78CE3D8018D934D013801BFE392
:100ED0006B0E711CF70184859585892B39F12FB72D
:100EE000F8948091C4049091C504A091C604B09177
:100EF000C7042FBF44815581668177812084318466
:100F000042845384421553056405750588F584179A
:100F10009507A607B70728F082159305A405B50520
:100F200088F1D7011D961C921E921C978091CE04C9
:100F30009091CF046DEC72E0009709F070C0269696
:100F40000FB6F894DEBF0FBECDBFDF91CF911F91DA
:100F50000F91FF90EF90DF90CF90BF90AF909F9058
:100F60008F907F906F905F904F903F902F9008955B
:100F700082159305A405B50528F084179507A607E3
:100F8000B70778F2D501ED91FC910284F385E02D4D
:100F9000C50119958F3F980709F49CCF86149704D3
:100FA000A9F1F40181934F01CE9709F093CF1E82EE
:100FB0001D8270E060E0C8010E940106009791F177
:100FC0009E012B5F3F4F3F932F9325E033E03F93EC
:100FD0002F939F938F930E941C0D7C010F900F9075
:100FE0000F900F900F900F900197E1F461E070E087
:100FF000C8010E9401060097F1F48091CE049091FF
:10100000CF046AE273E0009751F499CF8091CE0447
:101010009091CF04009709F492CF65EE72E00E94A0
:10102000A8048DCF8091CE049091CF0469E073E045
:101030000097A9F784CF9E012F5F3F4F490124E01D
:10104000D4011D922A95E9F7FC01D4019C012D5F82
:101050003F4F81918B3351F462E273E0C4010E94EF
:10106000130D892B51F4F12CE12C0FC08E33A1F319
:101070008D932E173F0769F7EFCF66E273E0C40147
:101080000E94130D892B09F0B8CFF701EE0FFF1F57
:10109000EE0FFF1FEC5BFD4FE280F380E114F104E3
:1010A00009F4ABCF81E2F60111928A95E9F762E08B
:1010B00070E0C8010E9401060097D9F0FC01D6013A
:1010C0009C01205E3F4F81918B3351F08E3341F074
:1010D00090ED980F9230D0F48D93E217F30799F7C3
:1010E0008091CE049091CF04009719F0B6010E9430
:1010F000A8046D817E81F801E159FF4F0190F081D4
:10110000E02D9601A701C501199519CF81E2D601FD
:101110001D928A95E9F78091CE049091CF0462E404
:1011200073E0009709F07BCF0ACFCF93DF936091F4
:10113000CC047091CD0482E594E00E940D07C0912B
:101140004C04D0914D04209741F0EB85FC85CE01F5
:1011500019950F84D889C02DF6CFE0914C04F091F9
:101160004D04309741F085859685892B81F407845D
:10117000F089E02DF6CF809102018F7E80930201ED
:101180002C9A8AEC98E09093D1048093D004DF915C
:10119000CF910895CF93DF936091CC047091CD04EB
:1011A00082E594E00E940D07C0914C04D0914D045B
:1011B000209741F0EB85FC85CE0119950F84D889E5
:1011C000C02DF6CFE0914C04F0914D04309789F09A
:1011D00085859685892B21F40784F089E02DF6CF4B
:1011E0000E94A0022C9885E998E09093D104809306
:1011F000D004DF91CF9108951F920F920FB60F92F6
:1012000011240BB60F922F933F934F935F936F93DD
:101210007F938F939F93AF93BF93EF93FF9382ED51
:1012200094E00E948D01FF91EF91BF91AF919F914A
:101230008F917F916F915F914F913F912F910F907F
:101240000BBE0F900FBE0F901F9018951F920F921C
:101250000FB60F9211240BB60F922F938F939F937B
:10126000EF93FF93E091E204F091E3048081E09139
:10127000E804F091E90482FD1DC090818091EB04A7
:101280008F5F8F732091EC04821741F0E091EB04A3
:10129000F0E0EE52FB4F958F8093EB04FF91EF91BE
:1012A0009F918F912F910F900BBE0F900FBE0F90BB
:1012B0001F9018958081F2CF1F920F920FB60F9258
:1012C00011240BB60F922F933F934F935F936F931D
:1012D0007F938F939F93AF93BF93EF93FF938FE68B
:1012E00095E00E948D01FF91EF91BF91AF919F9189
:1012F0008F917F916F915F914F913F912F910F90BF
:101300000BBE0F900FBE0F901F9018951F920F925B
:101310000FB60F9211240BB60F922F938F939F93BA
:10132000EF93FF93E0917F05F09180058081E0913C
:101330008505F091860582FD1DC09081809188050C
:101340008F5F8F7320918905821741F0E0918805A6
:10135000F0E0E159FA4F958F80938805FF91EF9166
:101360009F918F912F910F900BBE0F900FBE0F90FA
:101370001F9018958081F2CF1F920F920FB60F9297
:1013800011242F933F938F939F93AF93BF9380919B
:10139000C4049091C504A091C604B091C7043091D3
:1013A000C30423E0230F2D3758F50196A11DB11D6D
:1013B0002093C3048093C4049093C504A093C604EF
:1013C000B093C7048091C8049091C904A091CA0445
:1013D000B091CB040196A11DB11D8093C8049093D8
:1013E000C904A093CA04B093CB04BF91AF919F915D
:1013F0008F913F912F910F900FBE0F901F901895D6
:1014000026E8230F0296A11DB11DD2CFE2EDF4E034
:101410001382128248EE53E060E070E0448355830B
:101420006683778380E592E0918380832DEC30E0C2
:10143000358724872CEC30E03787268728EC30E08E
:10144000318B208B29EC30E0338B228B2AEC30E07F
:10145000358B248B2EEC30E0378B268B118E128E41
:10146000138E148EEFE6F5E01382128244835583C7
:10147000668377839183808385EC90E0958784876A
:1014800084EC90E09787868780EC90E0918B808B4E
:1014900081EC90E0938B828B82EC90E0958B848B37
:1014A00086EC90E0978B868B118E128E138E148EA5
:1014B0000895789484B5826084BD84B5816084BDCC
:1014C00085B5826085BD85B5816085BD80916E00E2
:1014D000816080936E001092810080918100826013
:1014E0008093810080918100816080938100809150
:1014F00080008160809380008091B100846080933F
:10150000B1008091B00081608093B0008091910023
:10151000826080939100809191008160809391001E
:10152000809190008160809390008091A100826002
:101530008093A1008091A10081608093A10080919F
:10154000A00081608093A00080912101826080933F
:1015500021018091210181608093210180912001EE
:1015600081608093200180917A00846080937A006A
:1015700080917A00826080937A0080917A00816005
:1015800080937A0080917A00806880937A0010922C
:10159000C1008DE091E09093D1048093D00460E18C
:1015A00077E280E090E00E946E028FE695E09093F3
:1015B000CF048093CE040E94E60061E070E080E0FA
:1015C00090E00E946E028091010180618093010190
:1015D000809102018F7E8093020161E070E080E0E3
:1015E00090E00E946E020E94A0026EE071E080E036
:1015F00090E00E946E02809102018F7E8093020132
:1016000080910101877F80930101809102018860B0
:101610008093020161E070E080E090E00E946E0241
:101620008091000183FD1DC06EE071E080E090E0DC
:101630000E946E020E94A0026EE071E080E090E0E5
:101640000E946E02809102018F7E80930201809140
:10165000CE049091CF04009721F067E573E00E94DB
:10166000A804249A2C988FEF81B912B81092070120
:101670008093080187E087B988EF88B961E070E05E
:1016800080E090E00E946E02E2E5F4E080E4DF0199
:101690001D928A95E9F7E2E9F4E081E2EF011992FF
:1016A0008A95E9F782E390E0A0E0B0E08093B3048C
:1016B0009093B404A093B504B093B6048091BF0492
:1016C0009091C004892B99F08091B7049091B8044F
:1016D000A091B904B091BA04C296A11DB11D809326
:1016E000BB049093BC04A093BD04B093BE048BE8EC
:1016F00095E09093C2048093C10482ED94E09093AE
:10170000CD048093CC040E94E60061E070E080E0AC
:1017100090E00E946E02E0E0F2E023E332E0DF01BD
:101720002A173B07C9F58091500490915104C0914C
:101730004C04D0914D04A0914E04B0914F0444E468
:1017400052E04E175F0709F436C13E2F2F2F8F3F0F
:10175000910509F008F44EC0909351048093500411
:10176000D0934D04C0934C04B0934F04A0934E0407
:101770008091CE049091CF04009721F06DE873E042
:101780000E94A8048091CE049091CF046FEA73E088
:10179000009709F053C026C01C91CD014196EC0181
:1017A0004881141322C08091CE049091CF040097F9
:1017B00021F06EE673E00E94C1048091CE04909106
:1017C000CF04009739F0412F50E070E060E02AE04C
:1017D0000E94BD038091CE049091CF046EE773E028
:1017E000009761F50E94A002D9C028173907B1F609
:1017F000519696CF209759F05096FC93EE931F97F1
:10180000108A178601967196A32FB22F9ACFEF01F7
:10181000F7CF808181111FC08091CE049091CF04B9
:10182000009721F06BEC73E00E94A8048091CE0435
:101830009091CF040097B1F261EF73E00E94A80489
:101840008091CE049091CF04009761F26CE274E035
:101850000E94A804C7CF8181928101970697B8F5AD
:101860000784F089E02D3097A1F682E1282E83E0ED
:10187000382E9EE0492E91E0592E26E7622E23E075
:10188000722E0DE716E03AE5E32E33E0F32E45E441
:10189000C42E46E0D42E52E9A52E53E0B52E65ECB9
:1018A000862E66E0962E209709F465C089819A817C
:1018B00083309105B9F1A8F481309105F1F026EF5C
:1018C00032E082309105D9F05C864B861AC0809157
:1018D000CE049091CF0460E174E0009709F0AECFA0
:1018E00081CF8530910541F100F18630910561F796
:1018F000BC86AB869A8689861CC02AED32E03C877E
:101900002B8721E735E03A87298782309105C9F096
:101910008330910559F1019761F423EC34E0388765
:101920002F8313C03C862B86ECCFFC86EB86DA86B1
:10193000C98627E535E0F3CF7C866B861A87098751
:10194000F8CF87EE94E098878F83FE01339684E08A
:10195000DF011D928A95E9F7EB85FC85CE0119958B
:101960001E861D860F84D889C02D9DCFA5E1B5E0C8
:10197000B887AF83EACF68EE73E080E090E00E9422
:101980006E022C9A8AEC98E09093D1048093D00454
:101990008091CE049091CF04009741F4E091D0045F
:1019A000F091D10419950E941C02F8CF64E474E010
:1019B0000E94A804F3CF9093510480935004D093D5
:1019C0004D04C0934C04B0934F04A0934E04FE0109
:1019D0004ACFA1E21A2EAA1BBB1BFD010DC0AA1FF4
:1019E000BB1FEE1FFF1FA217B307E407F50720F088
:1019F000A21BB30BE40BF50B661F771F881F991F03
:101A00001A9469F760957095809590959B01AC014B
:101A1000BD01CF010895EE0FFF1F881F8BBF0790F8
:101A2000F691E02D1994FB01DC018D910190801954
:101A30000110D9F3990B0895CF93DF93CDB7DEB79B
:101A40002E970FB6F894DEBF0FBECDBF85E08C8316
:101A50008C899D899A838983AE01485E5F4F6E8928
:101A60007F89CE0101960E94E80E2E960FB6F8945B
:101A7000DEBF0FBECDBFDF91CF91089520FD09C01D
:101A8000FC0123FD05C022FF02C0738362835183E2
:101A90004083089544FD17C046FD1DC0DB01FC01D5
:101AA000AA0FBB1FEE1FFF1F1094D1F76A0F7B1FF9
:101AB0008E1F9F1F660F771F881F991F620F711D52
:101AC000811D911D089533E0660F771F881F991FB0
:101AD0003150D1F7F3CF34E0F7CF0F931F93CF936B
:101AE000DF938C01C8010E941510EC0197FD08C01E
:101AF0000E940110892BB1F7B801CE010E9451104C
:101B0000CE01DF91CF911F910F9108958F929F92F7
:101B1000AF92BF92EF92FF920F931F93CF93DF93F9
:101B20008C01D62F7A01B22E0E9415109C0133270A
:101B30002B32310529F02D323105A9F46894B7F81C
:101B4000D15061F480E0DF91CF911F910F91FF9010
:101B5000EF90BF90AF909F908F900895C8010E9422
:101B6000151097FDEFCFCB2DCD7F2B2D2073F9F4E2
:101B70008033E9F4AA24AA94AD0E89F0C8010E942A
:101B8000151097FD0CC0282F2F7D283561F4C264F5
:101B9000D25029F0C8010E94151097FF08C0812C6F
:101BA000912C54011BC0B6FE2BC0C260DA2D812CD3
:101BB000912C540120ED280F283028F1C4FD09C0D4
:101BC0002A3008F1C6FF05C02F7D3FEE320F3630B8
:101BD000C8F0B8010E945110C1FFB4CFC7FF08C0C0
:101BE000B094A09490948094811C911CA11CB11C71
:101BF0002C2FB501A401C7010E943E0D81E0A3CFA7
:101C0000C261D4CF27504C2FC501B4010E944A0DA8
:101C10004B015C01C260D15009F3C8010E9415104C
:101C200097FFC8CFD9CF7F928F929F92AF92BF92EA
:101C3000CF92DF92EF92FF920F931F93CF93DF9398
:101C4000CDB7DEB7A0970FB6F894DEBF0FBECDBFFD
:101C50005C01962E7A01CE0101966C0180E2F601BC
:101C600011928A95E9F7F501B381890130E020E00E
:101C7000712C812CA0E041E050E0F801B3FD85918A
:101C8000B3FF8191982F8F01811117C010E000E000
:101C9000C801A0960FB6F894DEBF0FBECDBFDF918E
:101CA000CF911F910F91FF90EF90DF90CF90BF9059
:101CB000AF909F908F907F9008958E3519F42115E5
:101CC000310541F1A21713064CF48D3549F18D32DF
:101CD00029F4811006C0882483941DC0882009F44B
:101CE00064C0E92FE695E695E695EC0DFD2DF11D16
:101CF000892F8770BA0101C0660F8A95EAF7808143
:101D0000682B6083791651F0971510F49F5FE9CF27
:101D10009150E7CFA1E02F5F3F4FAFCF812CFBCF9A
:101D2000882019F08E8180628E83AA2359F0F601F3
:101D30009E012F5D3F4F8081809580833196E21711
:101D4000F307C9F788248394C5010E94151097FDF5
:101D500016C0E82FE695E695E695EC0DFD2DF11DF4
:101D6000208130E0AC014770552702C0359527959A
:101D70004A95E2F720FD06C0B5010E945110882067
:101D800069F084CFE114F10429F0F7018083C701E1
:101D900001967C019A94812C9110D6CFE114F10424
:101DA00009F476CFF701108273CFE82FE695E69518
:101DB000E695EC0DFD2DF11D982F9770BA0101C02D
:101DC000660F9A95EAF79081692B6083782EA3CFEE
:101DD0005F926F927F928F929F92AF92BF92CF92BB
:101DE000DF92EF92FF920F931F93CF93DF936C01DB
:101DF000EB015A01FC0117821682512CF601E38097
:101E0000FE01E3FC8591E3FE8191182FEF01882309
:101E1000E9F090E00E940110892B21F0C6010E9498
:101E20006D0DECCF153241F4FE01E3FC1591E3FE9C
:101E30001191EF01153269F4C6010E94151097FD4A
:101E40008EC01817D9F2B6010E945110852D90E06E
:101E50008AC000E01A3231F4E3FC1591E3FE1191DF
:101E6000EF0101E0F12C20ED210F2A3048F101FFB4
:101E700037C0FF2059F31836B1F11C3609F43DC0C4
:101E8000112321F3612F70E088E591E00E940A1090
:101E9000892BE1F2912C812C00FD06C0F501808098
:101EA0009180C50102965C011E3679F5F6014681E6
:101EB000578170E060E0202FC4010E943E0D9ECF4C
:101EC00002606F2D70E090E080E040E20E944A0DD9
:101ED000F62EFE01E3FC1591E3FE1191EF01C3CF55
:101EE000FF24FA94C8CFFE01E3FC1591E3FE1191A3
:101EF000EF01183609F0C4CF08600460FE01E3FC6E
:101F00001591E3FE1191EF01BBCF1336C1F401FD32
:101F100002C0FF24F394C6010E94151097FD1FC054
:101F20008114910429F0F4018083C40101964C01CD
:101F3000FA94F110F0CF00FD61CF53945FCF1B35C1
:101F400011F59E01A4016F2DC6010E94130EEC0134
:101F5000892B89F7F6018381807309F477CF8FEF9E
:101F60009FEF511073CFDF91CF911F910F91FF9091
:101F7000EF90DF90CF90BF90AF909F908F907F9029
:101F80006F905F900895C6010E946D0D97FDE7CF99
:101F90001F36A9F130F4143641F0193639F00064D7
:101FA00005C01337B9F01537D1F70062202FA4010F
:101FB0006F2DC6010E94860D8111BDCFCBCF81143C
:101FC000910429F0F4016082C40101964C01FA9455
:101FD000FF2071F0C6010E9415103C0197FD08C05A
:101FE0000E940110892B59F3B601C3010E945110C0
:101FF0008114910409F49FCFF40110829CCF0061F9
:10200000D5CF91110C946910803219F08950855008
:10201000C8F70895FC010590061621F00020D9F7B5
:10202000C00108953197CF010895CF93DF93EC015C
:102030002B8120FF1AC026FF0CC02F7B2B838E81A3
:102040009F8101969F838E838A8190E0DF91CF915B
:10205000089522FF18C0E881F9818081082E000CC4
:10206000990B009729F420622B838FEF9FEFEECF1F
:102070003196F983E8832E813F812F5F3F4F3F8365
:102080002E839927E3CFEA85FB85199597FFF3CF38
:102090002B81019621F080E2822B8B83E6CF80E1B9
:1020A000FBCFFB01238120FF11C026FD0FC08F3F16
:1020B000980771F082832F7D2064238326813781E6
:1020C0002150310937832683992708958FEF9FEF99
:0C20D0000895992788270895F894FFCF01
:1020DC0001020000000000000000000000000000F1
:1020EC0000020100000000000000000000000000E1
:1020FC0000000404000000000000000000000000CC
:10210C0000000008010000000000000000000000BA
:10211C000000000022030100260302000000000062
:10212C00AF010F013C01FC016D014B015F010D0A78
:10213C0000203D20003A200067657420636F6D6DB0
:10214C00616E6420697320756E737570706F727434
:10215C0065640073657420636F6D6D616E642069D6
:10216C007320756E737570706F7274656400756E24
:10217C00737570706F7274656420636F6D6D616ED2
:10218C0064006D6F64756C65206E6F7420666F757E
:10219C006E6400627573206572726F720073735F88
:1021AC0072656164526571756573743A2074696DFA
:1021BC00656F75740073735F7265616452657175D8
:1021CC006573743A20627566666572206F76657207
:1021DC00666C6F770025643B0073735F636F6E747E
:1021EC00726F6C3A206964206E6F7420666F756E26
:1021FC006400676574007365740073735F636F6E5E
:10220C0074726F6C3A2062616420636F6D6D616EE5
:10221C00640073735F636F6E74726F6C3A206261EB
:10222C006420646174610064656661756C7420621D
:10223C007574746F6E20697320646F776E006D6FA8
:10224C0064756C6520616464726573732000206929
:10225C0073206E6F7420756E69717565006D6F6497
:10226C00756C654C4C6973745F6164644974656D1D
:10227C003A206C656E677468206C696D69740066D1
:10228C0061696C656420746F206275696C64206D83
:10229C006F64756C65206C697374006D6F64756C1C
:1022AC0065506172616D5F636865636B41646472F4
:1022BC006573733A20626164206164647265737340
:1022CC00006D6F64756C655F636865636B506172FC
:1022DC00616D3A206261642061646472657373009D
:1022EC006D6F64756C655F636865636B506172617B
:1022FC006D3A20626164206B696E64006170706D70
:10230C006F64756C65735F626567696E2066616981
:0C231C006C656400737461727465640089
:00000001FF
