:100000000C943B010C946C010C946C010C946C01ED
:100010000C946C010C946C010C946C010C946C01AC
:100020000C946C010C946C010C946C010C946C019C
:100030000C946C010C946C010C946C010C946C018C
:100040000C946C010C946C010C946C010C946C017C
:100050000C946C010C946C010C946C010C94DB05F9
:100060000C946C010C94A5050C947B050C946C010C
:100070000C946C010C946C010C946C010C946C014C
:100080000C946C010C946C010C946C010C946C013C
:100090000C946C010C946C010C946C010C946C012C
:1000A0000C946C010C946C010C946C010C946C011C
:1000B0000C946C010C946C010C946C010C946C010C
:1000C0000C946C010C946C010C946C010C946C01FC
:1000D0000C946C010C946C010C946C010C946C01EC
:1000E0000C946C010C94DB020C949B010C94E902BF
:1000F0000C94B4040C94C5030C94BE010C94CE0271
:100100000C9405030C94F7020C94F3020C94CA02AD
:100110000C9451020C94FB020C94DF020C94BF036C
:100120000C94E5020C94C0020C94D2020C940003CF
:100130000C94CC010C94F6060C946E010C94AA015C
:100140000C9404020C94C6020C94ED020C94D5029B
:100150000C940103000020002300260029002C003D
:100160002F00320000010000030106010901000018
:100170002100240027002A002D0030003300010157
:100180000000040107010A010000220025002800E8
:100190002B002E003100340002010000050108018F
:1001A0000B010505050507050808080802020202FB
:1001B0000A0A080804040404010101010101010103
:1001C0000303030303030303040707070C0C0C0CCE
:1001D0000C0C0C0C020202020606060606060606B7
:1001E0000B0B0B0B0B0B0B0B010210202008081044
:1001F0002040102040800201020108040201010297
:10020000040810204080804020100804020180046F
:1002100002018040201008040201080402010102CA
:1002200004081020408001020408102040800000D3
:100230000A0B02090C0D0E08070304010000000060
:1002400000000000000000000000000000000000AE
:10025000000000000000000000001211100000006B
:10026000000000000000000000000000000000008E
:1002700000000000F60611241FBECFEFD1E2DEBF62
:10028000CDBF00E00CBF12E0A0E0B2E0EEE9FEE07E
:1002900000E00BBF02C007900D92A237B107D9F75B
:1002A00023E0A2E7B2E001C01D92AA31B207E1F754
:1002B00011E0CBE3D1E000E006C021970109802FD7
:1002C000FE010E944507CA33D10780E00807A9F75D
:1002D0000E9425060C944D070C940000AF92BF922B
:1002E000CF92DF92EF92FF920F931F93CF93DF9302
:1002F0006C017B018B01040F151FEB015E01AE1831
:10030000BF08C017D10759F06991D601ED91FC9152
:100310000190F081E02DC6011995892B79F7C5016F
:10032000DF91CF911F910F91FF90EF90DF90CF90D1
:10033000BF90AF900895FC01538D448D252F30E080
:10034000842F90E0821B930B541710F0CF960895E2
:1003500001970895FC01918D828D981761F0A28D0F
:10036000AE0FBF2FB11D5D968C91928D9F5F9F73D5
:10037000928F90E008958FEF9FEF0895FC01918D8B
:10038000828D981731F0828DE80FF11D858D90E0F8
:1003900008958FEF9FEF0895FC01918D228D892F95
:1003A00090E0805C9F4F821B91098F73992708957D
:1003B0008DE792E00E94CC0121E0892B09F420E036
:1003C000822F0895FC01A48DA80FB92FB11DA35A47
:1003D000BF4F2C91848D90E001968F739927848F65
:1003E000A689B7892C93A089B1898C918370806488
:1003F0008C93938D848D981306C00288F389E02D29
:1004000080818F7D80830895EF92FF920F931F93D9
:10041000CF93DF93EC0181E0888F9B8D8C8D9813B7
:100420001AC0E889F989808185FF15C09FB7F894C3
:10043000EE89FF896083E889F9898081837080640F
:1004400080839FBF81E090E0DF91CF911F910F915A
:10045000FF90EF900895F62E0B8D10E00F5F1F4F69
:100460000F731127E02E8C8D8E110CC00FB607FC78
:10047000FACFE889F989808185FFF5CFCE010E9406
:10048000E201F1CFEB8DEC0FFD2FF11DE35AFF4F91
:10049000F0829FB7F8940B8FEA89FB898081806294
:1004A000CFCFCF93DF93EC01888D8823B9F0AA8951
:1004B000BB89E889F9898C9185FD03C0808186FD1F
:1004C0000DC00FB607FCF7CF8C9185FFF2CF80816E
:1004D00085FFEDCFCE010E94E201E9CFDF91CF9100
:1004E000089580E090E0892B29F00E94D8018111C5
:1004F0000E94000080E090E0892B49F080E090E0CD
:10050000892B29F00E94000081110E94000080E0E8
:1005100090E0892B49F080E090E0892B29F00E943F
:10052000000081110E94000080E090E0892B49F0DA
:1005300080E090E0892B29F00E94000081110C944A
:10054000000008958150823108F05AC0E82FF0E091
:100550008827E255FD4F8F4F0C944507CE02D202FB
:10056000C002C602CA020003D502DB02DF02E502B6
:10057000E902ED02F302F7020003FB0201030503A7
:10058000809180008F778093800008958091800013
:100590008F7DF9CF80918000877FF5CF84B58F77ED
:1005A00084BD089584B58F7DFBCF8091B0008F7797
:1005B0008093B00008958091B0008F7DF9CF809135
:1005C00090008F77809390000895809190008F7DA8
:1005D000F9CF80919000877FF5CF8091A0008F7731
:1005E0008093A00008958091A0008F7DF9CF809125
:1005F000A000877FF5CF809120018F778093200125
:100600000895809120018F7DF9CF80912001877F0F
:10061000F5CF1F93CF93DF93282F30E0F901E25DF0
:10062000FD4F8491F901E851FE4FD491F901EE5547
:10063000FE4FC491CC23A9F0162F81110E94A20273
:10064000EC2FF0E0EE0FFF1FE857FE4FA591B4919D
:100650008FB7F894EC91111108C0D095DE23DC938C
:100660008FBFDF91CF911F910895DE2BF8CFCF93ED
:10067000DF9390E0FC01E851FE4F24918E559E4F90
:10068000FC0184918823D1F090E0880F991FFC0130
:10069000E259FE4FA591B491FC01E857FE4FC59178
:1006A000D49161110EC09FB7F8948C91E22FE09520
:1006B0008E238C932881E223E8839FBFDF91CF9123
:1006C00008958FB7F894EC91E22BEC938FBFF6CF9F
:1006D0003FB7F8948091770290917802A0917902C7
:1006E000B0917A0226B5A89B05C02F3F19F001965C
:1006F000A11DB11D3FBFBA2FA92F982F8827BC017C
:10070000CD01620F711D811D911D42E0660F771FA3
:10071000881F991F4A95D1F708958F929F92AF92A3
:10072000BF92CF92DF92EF92FF924B015C010E9449
:1007300068036B017C010E9468036C197D098E09B6
:100740009F09683E734081059105A8F321E0821A54
:100750009108A108B10888EEC80E83E0D81EE11CFC
:10076000F11C81149104A104B10429F7FF90EF90CA
:10077000DF90CF90BF90AF909F908F90089564E6E8
:1007800070E080E090E00C948D038DE792E00E9491
:100790005102EDE7F2E0A289B3898C918F7E8C93B0
:1007A000A289B3898C91877F8C93A289B3898C911C
:1007B0008F778C93A289B3898C918F7D8C93828D56
:1007C000818F8FEB93E090937C0280937B0208955E
:1007D000672B19F061E00C94090360E0FCCFFC0189
:1007E00001900020E9F73197AF01481B590BBC017C
:1007F0008DE792E00C946E01CF93DF930E94EF039C
:10080000EC0182E592E00E94EF038C0F9D1FDF91C7
:10081000CF9108958F929F92AF92BF92CF92DF9225
:10082000EF92FF920F931F93CF93DF93CDB7DEB775
:10083000A1970FB6F894DEBF0FBECDBF6C01990F24
:10084000EE08FF08F7FE41C06DE28DE792E00E94DE
:1008500004028C0122273327A9012C193D094E09D6
:100860005F0919A2CE0181967C019AE0892E912C14
:10087000A12CB12CCA01B901A50194010E94230742
:10088000605DF70162937F01211531054105510536
:1008900089F790E080E0309719F0CF010E94EF03D4
:1008A000800F911FA1960FB6F894DEBF0FBECDBF8B
:1008B000DF91CF911F910F91FF90EF90DF90CF903C
:1008C000BF90AF909F908F900895A701960119A2B5
:1008D0008E010F5D1F4F8AE0C82ED12CE12CF12C28
:1008E000CA01B901A70196010E942307605DF801C2
:1008F00062938F01211531054105510589F790E07B
:1009000080E0309779F2CF010E94EF03CBCF0F93B5
:100910001F93CF93DF9300D000D01F921F92CDB7CB
:10092000DEB729833A834B835C836D837E83898121
:100930009A810E940A048B819C810E940A048D8105
:100940009E810E940A0485E592E00E94EF03C8019F
:1009500028960FB6F894DEBF0FBECDBFDF91CF91C2
:100960001F910F910C940A042F923F924F925F9225
:100970006F927F928F929F92AF92BF92CF92DF92AF
:10098000EF92FF920F931F93CF93DF9300D000D08D
:100990001F921F92CDB7DEB787E592E00E94FC035D
:1009A00024E6A22EB12C30E4832E32E0932E4AEAC4
:1009B000642E41E0742E90E0E92E92E0F92E88E05A
:1009C000F701DE01119601900D928A95E1F7F7018A
:1009D0004280238054803580C680D78060817181B9
:1009E00082E090E00E94E803642D722D84E090E0A4
:1009F0000E94E803652D732D86E090E00E94E803D5
:100A00006AE070E080E090E00E948D03E6E3F2E0AF
:100A10008491E0EFF1E00491F3011491112309F4C2
:100A200056C081110E94A202E12FF0E0EE0FFF1FDD
:100A3000EC5AFE4FA591B4918C91082391E080E08F
:100A400009F490E0092F182F442D4B822C82652D3C
:100A50005D823E82D886CF82C016D106D9F5860146
:100A600029813A81522D732D8C2D98850E948704FF
:100A700086E692E00E94FC03F8E0EF0EF11C8E1473
:100A80009F0409F09CCF81E0A81AB10809F093CF28
:100A900085EC93E090937C0280937B0228960FB6BE
:100AA000F894DEBF0FBECDBFDF91CF911F910F91A4
:100AB000FF90EF90DF90CF90BF90AF909F908F907E
:100AC0007F906F905F904F903F902F90089510E02F
:100AD00000E0BACF29813A81522D732D8C2D988553
:100AE0000E9487048AE692E00E94FC0361E08DE0A8
:100AF0000E940903C1CF1F920F920FB60F921124CB
:100B00000BB60F922F933F934F935F936F937F9307
:100B10008F939F93AF93BF93EF93FF938DE792E0F3
:100B20000E94E201FF91EF91BF91AF919F918F9150
:100B30007F916F915F914F913F912F910F900BBEDD
:100B40000F900FBE0F901F9018951F920F920FB627
:100B50000F9211240BB60F922F938F939F93EF93C5
:100B6000FF93E0918D02F0918E028081E0919302DB
:100B7000F091940282FD1DC09081809196028F5F5A
:100B80008F7320919702821741F0E0919602F0E076
:100B9000E358FD4F958F80939602FF91EF919F91BF
:100BA0008F912F910F900BBE0F900FBE0F901F9043
:100BB00018958081F2CF1F920F920FB60F921124D9
:100BC0002F933F938F939F93AF93BF938091730223
:100BD00090917402A0917502B091760230917202E8
:100BE00023E0230F2D3758F50196A11DB11D209349
:100BF00072028093730290937402A0937502B09373
:100C000076028091770290917802A0917902B0915A
:100C10007A020196A11DB11D80937702909378020C
:100C2000A0937902B0937A02BF91AF919F918F9177
:100C30003F912F910F900FBE0F901F90189526E8AF
:100C4000230F0296A11DB11DD2CF789484B5826086
:100C500084BD84B5816084BD85B5826085BD85B560
:100C6000816085BD80916E00816080936E001092DE
:100C70008100809181008260809381008091810059
:100C800081608093810080918000816080938000EA
:100C90008091B10084608093B1008091B000816048
:100CA0008093B00080919100826080939100809148
:100CB0009100816080939100809190008160809389
:100CC00090008091A10082608093A1008091A1009A
:100CD00081608093A1008091A00081608093A0003A
:100CE00080912101826080932101809121018160A6
:100CF0008093210180912001816080932001809167
:100D00007A00846080937A0080917A008260809378
:100D10007A0080917A00816080937A0080917A00D5
:100D2000806880937A001092C10061E082E00E94A6
:100D3000370361E084E00E94370361E086E00E94AF
:100D4000370360E088E00E94370361E08DE00E9495
:100D5000370360E08DE00E940903E0918D02F0917D
:100D60008E0282E08083E0918902F0918A021082F3
:100D7000E0918B02F0918C028FEC808310929502AF
:100D8000E0919102F091920286E08083E0918F02DF
:100D9000F0919002808180618083E0918F02F091D8
:100DA0009002808188608083E0918F02F0919002B0
:100DB000808180688083E0918F02F0919002808131
:100DC0008F7D808368EE73E080E090E00E948D0369
:100DD00084EB94E090937C0280937B02E0917B0211
:100DE000F0917C0219950E947102F8CFEDE7F2E0D4
:100DF0001382128288EE93E0A0E0B0E084839583B2
:100E0000A683B78384E492E09183808385EC90E0AD
:100E10009587848784EC90E09787868780EC90E0C4
:100E2000918B808B81EC90E0938B828B82EC90E0B5
:100E3000958B848B86EC90E0978B868B118E128E2F
:100E4000138E148E0895A1E21A2EAA1BBB1BFD015E
:100E50000DC0AA1FBB1FEE1FFF1FA217B307E40799
:100E6000F50720F0A21BB30BE40BF50B661F771FF1
:100E7000881F991F1A9469F76095709580959095D1
:100E80009B01AC01BD01CF010895EE0FFF1F881F2C
:0E0E90008BBF0790F691E02D1994F894FFCFD8
:100E9E00010001000100010000000100010000003E
:100EAE00010000000100010001000100000001002E
:100EBE000000000001000100000001000000010020
:100ECE00010000000000010001000100010001000E
:100EDE000000000004026E019B015102CC01AA0128
:100EEE00BE010D0A003D0077727320626F6172645D
:100EFE00207465737400204F4B00206661696C6529
:020F0E0064007D
:00000001FF
