:100000000C942A010C945B010C945B010C945B0131
:100010000C945B010C945B010C945B010C945B01F0
:100020000C945B010C945B010C945B010C945B01E0
:100030000C945B010C945B010C945B010C945B01D0
:100040000C945B010C945B010C945B010C945B01C0
:100050000C945B010C945B010C945B010C94800488
:100060000C945B010C944A040C9420040C945B01E6
:100070000C945B010C945B010C945B010C945B0190
:100080000C945B010C945B010C945B010C945B0180
:100090000C945B010C945B010C945B010C945B0170
:1000A0000C945B010C945B010C945B010C945B0160
:1000B0000C945B010C945B010C945B010C945B0150
:1000C0000C945B010C945B010C945B010C945B0140
:1000D0000C945B010C945B010C945B010C945B0130
:1000E0000C945B010C94BD050C94C0010C94760239
:1000F0000C94BC010C941C020C94C4010C94A5013A
:100100000C940D020C9430020C94E0010C94B2019A
:100110000C94B6010C94D8010C94C3020C94DC012D
:100120000C9488010C94D2010C94CE010C948D0196
:100130000C94A1010C94CA010C94A9010C9499038C
:100140000C94AC010C943E020C949D010000210023
:10015000240027002A002D00300033000101000098
:10016000040107010A0100002200250028002B00DD
:100170002E003100340002010000050108010B01CE
:1001800005050505070508080808020202020A0A13
:100190000808040404040101010101010101030331
:1001A000030303030303040707070C0C0C0C0C0CDC
:1001B0000C0C0202020206060606060606060B0BD9
:1001C0000B0B0B0B0B0B010210202008081020401A
:1001D000102040800201020108040201010204080B
:1001E0001020408080402010080402018004020199
:1001F00080402010080402010804020101020408E2
:1002000010204080010204081020408000000A0BEA
:1002100002090C0D0E080703040100000000000095
:1002200000000000000000000000000000000000CE
:10023000000000000000000012111000000000008B
:1002400000000000000000000000000000000000AE
:100250000000BD0511241FBECFEFD1E2DEBFCDBF30
:1002600000E00CBF12E0A0E0B2E0E8EEFBE000E04E
:100270000BBF02C007900D92AE31B107D9F722E053
:10028000AEE1B2E001C01D92A63CB207E1F711E079
:10029000CAE2D1E000E006C021970109802FFE01EB
:1002A0000E94EA05C932D10780E00807A9F70E9439
:1002B000CA040C94F2050C940000E3E1F2E084918E
:1002C000EDECF1E02491E7E8F1E09491992309F451
:1002D00033C0882311F181508231F8F4E82FF0E027
:1002E0008827EA58FE4F8F4F0C94EA05A501A90113
:1002F00088019D01A1018D01AC01B201B601BC01D3
:10030000C001C401CA01CE018D01D201D801DC01B6
:10031000809180008F7780938000E92FF0E0EE0FCE
:10032000FF1FEA59FE4FA591B4918FB7F894EC9155
:1003300020952E232C938FBF0895809180008F7D70
:10034000EACF80918000877FE6CF84B58F7784BD28
:10035000E4CF84B58F7DFBCF8091B0008F77809301
:10036000B000DBCF8091B0008F7DF9CF80919000FD
:100370008F7780939000D1CF809190008F7DF9CFBF
:1003800080919000877FF5CF8091A0008F77809338
:10039000A000C3CF8091A0008F7DF9CF8091A000F5
:1003A000877FF5CF809120018F7780932001B5CF93
:1003B000809120018F7DF9CF80912001877FF5CF3B
:1003C000AF92BF92CF92DF92EF92FF920F931F9363
:1003D000CF93DF936C017B018B01040F151FEB01A1
:1003E0005E01AE18BF08C017D10759F06991D60158
:1003F000ED91FC910190F081E02DC6011995892BBA
:1004000079F7C501DF91CF911F910F91FF90EF9088
:10041000DF90CF90BF90AF900895FC01538D448D35
:10042000252F30E0842F90E0821B930B541710F09F
:10043000CF96089501970895FC01918D828D9817AC
:1004400061F0A28DAE0FBF2FB11D5D968C91928D84
:100450009F5F9F73928F90E008958FEF9FEF0895B5
:10046000FC01918D828D981731F0828DE80FF11D7E
:10047000858D90E008958FEF9FEF0895FC01918D99
:10048000228D892F90E0805C9F4F821B91098F7392
:100490009927089589E292E00E943E0221E0892B8B
:1004A00009F420E0822F0895FC01A48DA80FB92F34
:1004B000B11DA35ABF4F2C91848D90E001968F738C
:1004C0009927848FA689B7892C93A089B1898C91AB
:1004D000837080648C93938D848D981306C00288FA
:1004E000F389E02D80818F7D80830895EF92FF92C4
:1004F0000F931F93CF93DF93EC0181E0888F9B8D47
:100500008C8D98131AC0E889F989808185FF15C000
:100510009FB7F894EE89FF896083E889F989808123
:100520008370806480839FBF81E090E0DF91CF91F2
:100530001F910F91FF90EF900895F62E0B8D10E014
:100540000F5F1F4F0F731127E02E8C8D8E110CC083
:100550000FB607FCFACFE889F989808185FFF5CFCE
:10056000CE010E945402F1CFEB8DEC0FFD2FF11D57
:10057000E35AFF4FF0829FB7F8940B8FEA89FB890B
:1005800080818062CFCFCF93DF93EC01888D882369
:10059000B9F0AA89BB89E889F9898C9185FD03C0E6
:1005A000808186FD0DC00FB607FCF7CF8C9185FFCB
:1005B000F2CF808185FFEDCFCE010E945402E9CFBA
:1005C000DF91CF91089580E090E0892B29F00E947F
:1005D0004A0281110E94000080E090E0892B49F0DE
:1005E00080E090E0892B29F00E94000081110E9498
:1005F000000080E090E0892B49F080E090E0892BBA
:1006000029F00E94000081110E94000080E090E02B
:10061000892B49F080E090E0892B29F00E940000AE
:1006200081110C9400000895CF93DF9390E0FC01BA
:10063000EA53FE4F249180589E4FFC0184918823F9
:10064000D1F090E0880F991FFC01E45BFE4FA5916B
:10065000B491FC01EA59FE4FC591D491623071F416
:100660009FB7F8943C91822F809583238C93E881E7
:100670002E2B28839FBFDF91CF9108958FB7F894D9
:10068000EC912E2B2C938FBFF6CF3FB7F89480912F
:10069000230290912402A0912502B091260226B552
:1006A000A89B05C02F3F19F00196A11DB11D3FBFAA
:1006B000BA2FA92F982F8827BC01CD01620F711D79
:1006C000811D911D42E0660F771F881F991F4A9573
:1006D000D1F70895109207018FEF80930801409899
:1006E00041980895FC0101900020E9F73197AF018E
:1006F000481B590BBC0189E292E00C94E001CF93B6
:10070000DF93CDB7DEB7A1970FB6F894DEBF0FBE6B
:10071000CDBF19A2805D88A3CE0180960E9472038E
:10072000A1960FB6F894DEBF0FBECDBFDF91CF917B
:10073000089582E192E00E9472038BE192E00E94B0
:10074000720388248394EE24EA9483E2A82EB12CC9
:100750000FE510E093ECC92ED12C22E0922EF894F4
:1007600082B810920701E0920801409A4198C501B1
:100770000197F1F7429AC8010197F1F7F09006014D
:10078000C8010197F1F74298C6010197F1F70E945D
:100790006A0312B878948F2D817090E00E947F03D5
:1007A0008F2D8695817090E00E947F03F2FA882752
:1007B00080F990E00E947F03F3FA882780F990E0A7
:1007C0000E947F038F2D8295817090E00E947F03AD
:1007D000F5FA882780F990E00E947F03F6FA8827CF
:1007E00080F990E00E947F038F2D881F8827881F43
:1007F00090E00E947F038DE192E00E9472038BE102
:1008000092E00E947203F89492B8E092070110926D
:1008100008014098419AC5010197F1F7F09208014B
:10082000C8010197F1F7429AC6010197F1F7429882
:10083000C8010197F1F70E946A0312B878948FCF2C
:100840001F920F920FB60F9211240BB60F922F9397
:100850003F934F935F936F937F938F939F93AF9348
:10086000BF93EF93FF9389E292E00E945402FF91BD
:10087000EF91BF91AF919F918F917F916F915F9118
:100880004F913F912F910F900BBE0F900FBE0F9085
:100890001F9018951F920F920FB60F9211240BB64E
:1008A0000F922F938F939F93EF93FF93E0913902D1
:1008B000F0913A028081E0913F02F091400282FD86
:1008C0001DC09081809142028F5F8F7320914302FF
:1008D000821741F0E0914202F0E0E75DFD4F958F15
:1008E00080934202FF91EF919F918F912F910F90F2
:1008F0000BBE0F900FBE0F901F9018958081F2CF06
:100900001F920F920FB60F9211242F933F938F9344
:100910009F93AF93BF9380911F0290912002A0916B
:100920002102B091220230911E0223E0230F2D37C5
:1009300058F50196A11DB11D20931E0280931F0240
:1009400090932002A0932102B0932202809123026F
:1009500090912402A0912502B09126020196A11D3A
:10096000B11D8093230290932402A0932502B0939B
:100970002602BF91AF919F918F913F912F910F9040
:100980000FBE0F901F90189526E8230F0296A11D09
:10099000B11DD2CF789484B5826084BD84B5816066
:1009A00084BD85B5826085BD85B5816085BD80913A
:1009B0006E00816080936E001092810080918100B2
:1009C00082608093810080918100816080938100AA
:1009D000809180008160809380008091B10084606C
:1009E0008093B1008091B00081608093B0008091CD
:1009F000910082608093910080919100816080934A
:100A00009100809190008160809390008091A1007E
:100A100082608093A1008091A10081608093A100F9
:100A20008091A00081608093A0008091210182606C
:100A30008093210180912101816080932101809127
:100A4000200181608093200180917A0084608093EE
:100A50007A0080917A00826080937A0080917A0097
:100A6000816080937A0080917A00806880937A0018
:100A70001092C1008FEF81B912B8109207018093D4
:100A8000080187E087B988EF88B961E087E00E94B4
:100A900014030E945D0162E086E00E94140361E09D
:100AA00087E00E9414030E945D01E0913902F091F9
:100AB0003A0282E08083E0913502F09136021082A2
:100AC000E0913702F09138028FEC8083109241025E
:100AD000E0913D02F0913E0286E08083E0913B028E
:100AE000F0913C02808180618083E0913B02F09133
:100AF0003C02808188608083E0913B02F0913C025F
:100B0000808180688083E0913B02F0913C0280818B
:100B10008F7D80830E9445034B015C0188E8C82ECD
:100B200083E1D82EE12CF12C0E9445036819790944
:100B30008A099B09683E734081059105A8F321E06D
:100B4000C21AD108E108F10888EE880E83E0981EE9
:100B5000A11CB11CC114D104E104F10429F789E9F5
:100B600093E09093280280932702E0912702F0916E
:100B7000280219950E94E302F8CFE9E2F2E013821D
:100B8000128288EE93E0A0E0B0E084839583A68390
:100B9000B78384E092E09183808385EC90E0958731
:100BA000848784EC90E09787868780EC90E0918B37
:100BB000808B81EC90E0938B828B82EC90E0958B24
:100BC000848B86EC90E0978B868B118E128E138E21
:100BD000148E0895EE0FFF1F881F8BBF0790F691AC
:080BE000E02D1994F894FFCFF9
:100BE800000000007602E0010D02C3023E021C0272
:0E0BF80030026275732074657374000D0A007C
:00000001FF
