:100000000C943B010C946C010C946C010C946C01ED
:100010000C946C010C946C010C946C010C946C01AC
:100020000C946C010C946C010C946C010C946C019C
:100030000C946C010C946C010C946C010C946C018C
:100040000C946C010C946C010C946C010C946C017C
:100050000C946C010C946C010C946C010C9435079D
:100060000C946C010C94FF060C94D5060C946C0156
:100070000C946C010C946C010C946C010C946C014C
:100080000C946C010C946C010C946C010C946C013C
:100090000C946C010C946C010C946C010C946C012C
:1000A0000C946C010C946C010C946C010C946C011C
:1000B0000C946C010C946C010C946C010C946C010C
:1000C0000C946C010C946C010C946C010C946C01FC
:1000D0000C946C010C946C010C946C010C946C01EC
:1000E0000C946C010C94F7020C9401030C94EE0335
:1000F0000C9451020C949B010C94C0020C94DF02EE
:100100000C9405030C949E080C94AA010C94FB0219
:100110000C94E8030C94C6020C94CA020C940402DA
:100120000C94CC010C9400030C94D2020C94CE02DB
:100130000C94E9020C94E5020C946E010C94DB0221
:100140000C94ED020C94BE010C94B4050C94D502F1
:100150000C94F30200002100240027002A002D0047
:100160003000330001010000040107010A01000012
:100170002200250028002B002E003100340002014F
:100180000000050108010B010000200023002600EB
:1001900029002C002F00320000010000030106019D
:1001A00009010505050507050808080802020202FD
:1001B0000A0A080804040404010101010101010103
:1001C0000303030303030303040707070C0C0C0CCE
:1001D0000C0C0C0C020202020606060606060606B7
:1001E0000B0B0B0B0B0B0B0B010210202008081044
:1001F0002040102040800201020108040201010297
:10020000040810204080804020100804020180046F
:1002100002018040201008040201080402010102CA
:1002200004081020408001020408102040800000D3
:100230000A0B02090C0D0E08070304010000000060
:1002400000000000000000000000000000000000AE
:10025000000000000000000000001211100000006B
:10026000000000000000000000000000000000008E
:10027000000000009E0811241FBECFEFD1E2DEBFB8
:10028000CDBF00E00CBF12E0A0E0B2E0EEEEF1E185
:1002900000E00BBF02C007900D92A43DB107D9F753
:1002A00023E0A4EDB2E001C01D92AC37B207E1F744
:1002B00011E0CBE3D1E000E006C021970109802FD7
:1002C000FE010E94ED08CA33D10780E00807A9F7B4
:1002D0000E947F070C94F5080C940000AF92BF9227
:1002E000CF92DF92EF92FF920F931F93CF93DF9302
:1002F0006C017B018B01040F151FEB015E01AE1831
:10030000BF08C017D10759F06991D601ED91FC9152
:100310000190F081E02DC6011995892B79F7C5016F
:10032000DF91CF911F910F91FF90EF90DF90CF90D1
:10033000BF90AF900895FC01538D448D252F30E080
:10034000842F90E0821B930B541710F0CF960895E2
:1003500001970895FC01918D828D981761F0A28D0F
:10036000AE0FBF2FB11D5D968C91928D9F5F9F73D5
:10037000928F90E008958FEF9FEF0895FC01918D8B
:10038000828D981731F0828DE80FF11D858D90E0F8
:1003900008958FEF9FEF0895FC01918D228D892F95
:1003A00090E0805C9F4F821B91098F73992708957D
:1003B0008FED92E00E94CC0121E0892B09F420E02E
:1003C000822F0895FC01A48DA80FB92FB11DA35A47
:1003D000BF4F2C91848D90E001968F739927848F65
:1003E000A689B7892C93A089B1898C918370806488
:1003F0008C93938D848D981306C00288F389E02D29
:1004000080818F7D80830895EF92FF920F931F93D9
:10041000CF93DF93EC0181E0888F9B8D8C8D9813B7
:100420001AC0E889F989808185FF15C09FB7F894C3
:10043000EE89FF896083E889F9898081837080640F
:1004400080839FBF81E090E0DF91CF911F910F915A
:10045000FF90EF900895F62E0B8D10E00F5F1F4F69
:100460000F731127E02E8C8D8E110CC00FB607FC78
:10047000FACFE889F989808185FFF5CFCE010E9406
:10048000E201F1CFEB8DEC0FFD2FF11DE35AFF4F91
:10049000F0829FB7F8940B8FEA89FB898081806294
:1004A000CFCFCF93DF93EC01888D8823B9F0AA8951
:1004B000BB89E889F9898C9185FD03C0808186FD1F
:1004C0000DC00FB607FCF7CF8C9185FFF2CF80816E
:1004D00085FFEDCFCE010E94E201E9CFDF91CF9100
:1004E000089580E090E0892B29F00E94D8018111C5
:1004F0000E94000080E090E0892B49F080E090E0CD
:10050000892B29F00E94000081110E94000080E0E8
:1005100090E0892B49F080E090E0892B29F00E943F
:10052000000081110E94000080E090E0892B49F0DA
:1005300080E090E0892B29F00E94000081110C944A
:10054000000008958150823108F05AC0E82FF0E091
:100550008827E255FD4F8F4F0C94ED08CE02D20252
:10056000C002C602CA020003D502DB02DF02E502B6
:10057000E902ED02F302F7020003FB0201030503A7
:10058000809180008F778093800008958091800013
:100590008F7DF9CF80918000877FF5CF84B58F77ED
:1005A00084BD089584B58F7DFBCF8091B0008F7797
:1005B0008093B00008958091B0008F7DF9CF809135
:1005C00090008F77809390000895809190008F7DA8
:1005D000F9CF80919000877FF5CF8091A0008F7731
:1005E0008093A00008958091A0008F7DF9CF809125
:1005F000A000877FF5CF809120018F778093200125
:100600000895809120018F7DF9CF80912001877F0F
:10061000F5CFCF93DF93282F30E0F901E25DFD4F56
:100620008491F901E851FE4FD491F901EE55FE4F46
:10063000C491CC23A1F081110E94A202EC2FF0E022
:10064000EE0FFF1FE857FE4FA591B491EC91ED23FB
:1006500081E090E009F480E0DF91CF91089580E09F
:1006600090E0FACF1F93CF93DF93282F30E0F9016A
:10067000E25DFD4F8491F901E851FE4FD491F901FB
:10068000EE55FE4FC491CC23A9F0162F81110E9484
:10069000A202EC2FF0E0EE0FFF1FE259FE4FA591F2
:1006A000B4918FB7F894EC91111108C0D095DE2366
:1006B000DC938FBFDF91CF911F910895DE2BF8CF90
:1006C000CF93DF9390E0FC01E851FE4F24918E55CB
:1006D0009E4FFC0184918823D1F090E0880F991FF0
:1006E000FC01EC5AFE4FA591B491FC01E259FE4F7A
:1006F000C591D49161110EC09FB7F8948C91E22FEF
:10070000E0958E238C932881E223E8839FBFDF91BD
:10071000CF9108958FB7F894EC91E22BEC938FBFB3
:10072000F6CF3FB7F8948091D9029091DA02A09168
:10073000DB02B091DC0226B5A89B05C02F3F19F063
:100740000196A11DB11D3FBFBA2FA92F982F882751
:10075000BC01CD01620F711D811D911D42E0660F2C
:10076000771F881F991F4A95D1F708958F929F92FE
:10077000AF92BF92CF92DF92EF92FF924B015C015A
:100780000E9491036B017C010E9491036C197D0909
:100790008E099F09683E734081059105A8F321E009
:1007A000821A9108A108B10888EEC80E83E0D81E0D
:1007B000E11CF11C81149104A104B10429F7FF90FC
:1007C000EF90DF90CF90BF90AF909F908F90089563
:1007D00064E670E080E090E00C94B6038FED92E068
:1007E0000E945102EFEDF2E0A289B3898C918F7ED5
:1007F0008C93A289B3898C91877F8C93A289B389CA
:100800008C918F778C93A289B3898C918F7D8C93F7
:10081000828D818F88EE93E09093DE028093DD02DB
:100820000895672B19F061E00C94320360E0FCCF6F
:100830001F93CF93DF93182F682F617070E082E0D1
:1008400090E00E941104612F6695617070E084E071
:1008500090E00E94110412FB662760F970E086E0C8
:1008600090E00E94110413FB662760F970E088E0B5
:1008700090E00E941104612F6295617070E08AE03F
:1008800090E00E94110415FB662760F970E08CE08F
:1008900090E00E94110416FB662760F970E08EE07C
:1008A00090E00E941104111F1127111F612F70E0A9
:1008B00080E190E0DF91CF911F910C9411041F9380
:1008C000CF93DF93182F682F617070E083E090E082
:1008D0000E941104612F6695617070E085E090E0E0
:1008E0000E94110412FB662760F970E087E090E037
:1008F0000E94110413FB662760F970E089E090E024
:100900000E941104612F6295617070E08BE090E0AD
:100910000E94110415FB662760F970E08FE090E0FB
:100920000E94110416FB662760F970E081E190E0F7
:100930000E941104111F1127111F612F70E083E124
:1009400090E0DF91CF911F910C941104FC01019074
:100950000020E9F73197AF01481B590BBC018FED1F
:1009600092E00C946E010C94A604019721F48EE49D
:1009700092E00C94B30480E492E0FBCFCF92DF923C
:10098000EF92FF920F931F93CF93DF93EC016B01D4
:100990007A01890186E10E94090321E030E0019794
:1009A00011F030E020E0C217D30709F062C082E105
:1009B00092E00E94B304CE010E94B50488E192E067
:1009C0000E94B304D0E0C0E087E10E94090321E067
:1009D00030E0019711F030E020E0C216D30669F450
:1009E00082E292E00E94B304C6010E94B50488E14D
:1009F00092E00E94B304D0E0C0E088E10E940903C5
:100A000021E030E0019711F030E020E0E216F3063B
:100A100069F488E292E00E94B304C7010E94B50421
:100A200088E192E00E94B304D0E0C0E089E10E9436
:100A3000090321E030E0019711F030E020E00217D7
:100A4000130769F48EE292E00E94B304C8010E9489
:100A5000B50488E192E00E94B304D0E0C0E0CE018A
:100A6000DF91CF911F910F91FF90EF90DF90CF908A
:100A70000895C1E0D0E0A8CFCF93DF930E94A604F1
:100A8000EC0184E392E00E94A6048C0F9D1FDF918D
:100A9000CF910895AF92BF92CF92DF92EF92FF92E3
:100AA0000F931F93CF93DF935C01EB017A016901F0
:100AB00088E792E00E94B304C5010E94B3048CE968
:100AC00092E00E943C0561E084E10E94320383E2EF
:100AD00090E00197F1F79801A601B701CE010E94BD
:100AE000BE04EC01892B91F587E392E00E943C055E
:100AF00060E084E10E94320383E290E00197F1F725
:100B000021E030E041E050E061E070E081E090E021
:100B10000E94BE04892BE9F485E492E00E943C0522
:100B200082E592E00E943C058AE592E00E943C0545
:100B3000D0E0C0E0CE01DF91CF911F910F91FF90E7
:100B4000EF90DF90CF90BF90AF900895C1E0D0E0DC
:100B5000CFCF209729F38AE792E00E943C058AE5EF
:100B600092E00E943C05E6CF4F925F926F927F9297
:100B70009F92AF92BF92CF92DF92EF92FF920F932C
:100B80001F93CF93DF93CDB7DEB7A1970FB6F8943D
:100B9000DEBF0FBECDBF83E892E00E943C05C12CB2
:100BA000D12C76018AE0482E512C612C712C93E2D5
:100BB000A92EB12C9C2C19A2A70196018E010F5DC4
:100BC0001F4FCA01B901A30192010E94CB08605DC9
:100BD000F80162938F01211531054105510589F70F
:100BE000309719F0CF010E94A6048BE992E00E9491
:100BF0003C05892D0E945F04892D0E94180421E084
:100C000030E041E050E061E070E081E090E00E947F
:100C1000BE04892B21F48EE992E00E943C0501E09C
:100C200010E021E030E041E050E070E060E089EA6F
:100C300092E00E944A0521E030E050E040E061E0AF
:100C400070E08FEA92E00E944A0530E020E041E047
:100C500050E061E070E085EB92E00E944A0510E010
:100C600000E021E030E041E050E061E070E08BEB3B
:100C700092E00E944A0501E010E021E030E041E00E
:100C800050E061E070E081EC92E00E944A05C5010D
:100C90000197F1F780E00E941804C5010197F1F770
:100CA000FFEFCF1ADF0AEF0AFF0A8FEFC816D10451
:100CB000E104F10409F07ECF8BEC92E00E94B304D2
:100CC0008BE992E00E943C058FEF0E945F0480E078
:100CD0000E94180421E030E041E050E061E070E063
:100CE00081E090E00E94BE04892B21F48EE992E01D
:100CF0000E943C0501E010E021E030E041E050E0DE
:100D000061E070E089EA92E00E944A0521E030E06B
:100D100041E050E061E070E08FEA92E00E944A0515
:100D200021E030E041E050E061E070E085EB92E0EE
:100D30000E944A0521E030E041E050E061E070E0CF
:100D40008BEB92E00E944A0521E030E041E050E068
:100D500061E070E081EC92E00E944A0503E210E05D
:100D6000C8010197F1F780E00E941804C8010197BB
:100D7000F1F78EEE93E09093DE028093DD02A19670
:100D80000FB6F894DEBF0FBECDBFDF91CF911F919C
:100D90000F91FF90EF90DF90CF90BF90AF909F901A
:100DA0007F906F905F904F9008951F920F920FB6B3
:100DB0000F9211240BB60F922F933F934F935F9393
:100DC0006F937F938F939F93AF93BF93EF93FF9313
:100DD0008FED92E00E94E201FF91EF91BF91AF9100
:100DE0009F918F917F916F915F914F913F912F9143
:100DF0000F900BBE0F900FBE0F901F9018951F9273
:100E00000F920FB60F9211240BB60F922F938F9360
:100E10009F93EF93FF93E091EF02F091F0028081B6
:100E2000E091F502F091F60282FD1DC09081809163
:100E3000F8028F5F8F732091F902821741F0E091E1
:100E4000F802F0E0E152FD4F958F8093F802FF9198
:100E5000EF919F918F912F910F900BBE0F900FBE2E
:100E60000F901F9018958081F2CF1F920F920FB6AE
:100E70000F9211242F933F938F939F93AF93BF9320
:100E80008091D5029091D602A091D702B091D8025C
:100E90003091D40223E0230F2D3758F50196A11D80
:100EA000B11D2093D4028093D5029093D602A093D3
:100EB000D702B093D8028091D9029091DA02A09122
:100EC000DB02B091DC020196A11DB11D8093D90215
:100ED0009093DA02A093DB02B093DC02BF91AF9152
:100EE0009F918F913F912F910F900FBE0F901F9068
:100EF000189526E8230F0296A11DB11DD2CF789434
:100F000084B5826084BD84B5816084BD85B582600E
:100F100085BD85B5816085BD80916E0081608093BF
:100F20006E00109281008091810082608093810028
:100F30008091810081608093810080918000816038
:100F4000809380008091B10084608093B100809193
:100F5000B00081608093B0008091910082608093A6
:100F60009100809191008160809391008091900028
:100F70008160809390008091A10082608093A100A5
:100F80008091A10081608093A1008091A000816088
:100F90008093A00080912101826080932101809143
:100FA00021018160809321018091200181608093E3
:100FB000200180917A00846080937A0080917A0089
:100FC000826080937A0080917A00816080937A00B9
:100FD00080917A00806880937A001092C10061E06D
:100FE00082E00E94600361E084E00E94600361E0AF
:100FF00086E00E94600361E088E00E94600361E097
:101000008AE00E94600361E08CE00E94600361E07E
:101010008EE00E94600361E080E10E94600361E075
:1010200083E00E94600361E085E00E94600361E06C
:1010300087E00E94600361E089E00E94600361E054
:101040008BE00E94600361E08FE00E94600361E03A
:1010500081E10E94600361E083E10E94600361E03E
:1010600084E10E94600360E086E10E94600360E02A
:1010700087E10E94600360E088E10E94600360E015
:1010800089E10E94600360E084E10E94320380E015
:101090000E94180480E00E945F0461E08DE00E94DD
:1010A000600360E08DE00E943203E091EF02F09176
:1010B000F00282E08083E091EB02F091EC0210827A
:1010C000E091ED02F091EE028FEC80831092F70236
:1010D000E091F302F091F40286E08083E091F10266
:1010E000F091F202808180618083E091F102F091C1
:1010F000F202808188608083E091F102F091F20237
:10110000808180688083E091F102F091F202808119
:101110008F7D808368E873E180E090E00E94B603F1
:1011200084EB95E09093DE028093DD02E091DD0296
:10113000F091DE0219950E947102F8CFEFEDF2E016
:101140001382128288EE93E0A0E0B0E0848395835E
:10115000A683B78384E092E09183808385EC90E05E
:101160009587848784EC90E09787868780EC90E071
:10117000918B808B81EC90E0938B828B82EC90E062
:10118000958B848B86EC90E0978B868B118E128EDC
:10119000138E148E0895A1E21A2EAA1BBB1BFD010B
:1011A0000DC0AA1FBB1FEE1FFF1FA217B307E40746
:1011B000F50720F0A21BB30BE40BF50B661F771F9E
:1011C000881F991F1A9469F760957095809590957E
:1011D0009B01AC01BD01CF010895EE0FFF1F881FD9
:0E11E0008BBF0790F691E02D1994F894FFCF85
:1011EE000000000004026E019B015102CC01AA0115
:1011FE00BE01202053302000206578706563746531
:10120E006400202053312000202053322000202063
:10121E00533320000D0A00203A617420636C6B205A
:10122E006869676800203A617420636C6B206C6F8C
:10123E007700204641494C4544002D2D2D2D2D2D56
:10124E002D2D2D2D2D2D2D2D2D2D2D2D2D2D2D2DC0
:10125E002D2D2D2D2D2D2D2D200020535543434565
:10126E0053530052696E6720636F756E74657220FA
:10127E00626F617264207465737400203A00203AC4
:10128E00617420737461727400436C6B2030004380
:10129E006C6B203100436C6B203200436C6B20333F
:1012AE0000436C6B2065787472610062616420612A
:0412BE0064647200F2
:00000001FF
